{
  "contractName": "Evaluator",
  "abi": [
    {
      "inputs": [
        {
          "internalType": "contract ERC20TD",
          "name": "_TDERC20",
          "type": "address"
        }
      ],
      "stateMutability": "nonpayable",
      "type": "constructor"
    },
    {
      "anonymous": false,
      "inputs": [
        {
          "indexed": false,
          "internalType": "address",
          "name": "erc20Address",
          "type": "address"
        }
      ],
      "name": "constructedCorrectly",
      "type": "event"
    },
    {
      "anonymous": false,
      "inputs": [
        {
          "indexed": false,
          "internalType": "string",
          "name": "name",
          "type": "string"
        },
        {
          "indexed": false,
          "internalType": "uint256",
          "name": "legs",
          "type": "uint256"
        },
        {
          "indexed": false,
          "internalType": "uint256",
          "name": "sex",
          "type": "uint256"
        },
        {
          "indexed": false,
          "internalType": "bool",
          "name": "wings",
          "type": "bool"
        }
      ],
      "name": "newRandomAnimalAttributes",
      "type": "event"
    },
    {
      "stateMutability": "payable",
      "type": "fallback",
      "payable": true
    },
    {
      "inputs": [
        {
          "internalType": "address",
          "name": "",
          "type": "address"
        }
      ],
      "name": "assignedRank",
      "outputs": [
        {
          "internalType": "uint256",
          "name": "",
          "type": "uint256"
        }
      ],
      "stateMutability": "view",
      "type": "function",
      "constant": true
    },
    {
      "inputs": [
        {
          "internalType": "address",
          "name": "",
          "type": "address"
        },
        {
          "internalType": "uint256",
          "name": "",
          "type": "uint256"
        }
      ],
      "name": "exerciceProgression",
      "outputs": [
        {
          "internalType": "bool",
          "name": "",
          "type": "bool"
        }
      ],
      "stateMutability": "view",
      "type": "function",
      "constant": true
    },
    {
      "inputs": [
        {
          "internalType": "address",
          "name": "",
          "type": "address"
        }
      ],
      "name": "hasBeenPaired",
      "outputs": [
        {
          "internalType": "bool",
          "name": "",
          "type": "bool"
        }
      ],
      "stateMutability": "view",
      "type": "function",
      "constant": true
    },
    {
      "inputs": [],
      "name": "nextValueStoreRank",
      "outputs": [
        {
          "internalType": "uint256",
          "name": "",
          "type": "uint256"
        }
      ],
      "stateMutability": "view",
      "type": "function",
      "constant": true
    },
    {
      "inputs": [
        {
          "internalType": "address",
          "name": "",
          "type": "address"
        }
      ],
      "name": "studentExerciceSolution",
      "outputs": [
        {
          "internalType": "contract IExerciceSolution",
          "name": "",
          "type": "address"
        }
      ],
      "stateMutability": "view",
      "type": "function",
      "constant": true
    },
    {
      "inputs": [
        {
          "internalType": "address",
          "name": "",
          "type": "address"
        }
      ],
      "name": "teachers",
      "outputs": [
        {
          "internalType": "bool",
          "name": "",
          "type": "bool"
        }
      ],
      "stateMutability": "view",
      "type": "function",
      "constant": true
    },
    {
      "stateMutability": "payable",
      "type": "receive",
      "payable": true
    },
    {
      "inputs": [],
      "name": "ex1_testERC721",
      "outputs": [],
      "stateMutability": "nonpayable",
      "type": "function"
    },
    {
      "inputs": [],
      "name": "ex2a_getAnimalToCreateAttributes",
      "outputs": [],
      "stateMutability": "nonpayable",
      "type": "function"
    },
    {
      "inputs": [
        {
          "internalType": "uint256",
          "name": "animalNumber",
          "type": "uint256"
        }
      ],
      "name": "ex2b_testDeclaredAnimal",
      "outputs": [],
      "stateMutability": "nonpayable",
      "type": "function"
    },
    {
      "inputs": [],
      "name": "ex3_testRegisterBreeder",
      "outputs": [],
      "stateMutability": "nonpayable",
      "type": "function"
    },
    {
      "inputs": [],
      "name": "ex4_testDeclareAnimal",
      "outputs": [],
      "stateMutability": "nonpayable",
      "type": "function"
    },
    {
      "inputs": [],
      "name": "ex5_declareDeadAnimal",
      "outputs": [],
      "stateMutability": "nonpayable",
      "type": "function"
    },
    {
      "inputs": [],
      "name": "ex6a_auctionAnimal_offer",
      "outputs": [],
      "stateMutability": "nonpayable",
      "type": "function"
    },
    {
      "inputs": [
        {
          "internalType": "uint256",
          "name": "animalForSale",
          "type": "uint256"
        }
      ],
      "name": "ex6b_auctionAnimal_buy",
      "outputs": [],
      "stateMutability": "nonpayable",
      "type": "function"
    },
    {
      "inputs": [
        {
          "internalType": "contract IExerciceSolution",
          "name": "studentExercice",
          "type": "address"
        }
      ],
      "name": "submitExercice",
      "outputs": [],
      "stateMutability": "nonpayable",
      "type": "function"
    },
    {
      "inputs": [
        {
          "internalType": "bytes32",
          "name": "_bytes32",
          "type": "bytes32"
        }
      ],
      "name": "bytes32ToString",
      "outputs": [
        {
          "internalType": "string",
          "name": "",
          "type": "string"
        }
      ],
      "stateMutability": "pure",
      "type": "function",
      "constant": true
    },
    {
      "inputs": [
        {
          "internalType": "address",
          "name": "studentAddres",
          "type": "address"
        }
      ],
      "name": "readName",
      "outputs": [
        {
          "internalType": "string",
          "name": "",
          "type": "string"
        }
      ],
      "stateMutability": "view",
      "type": "function",
      "constant": true
    },
    {
      "inputs": [
        {
          "internalType": "address",
          "name": "studentAddres",
          "type": "address"
        }
      ],
      "name": "readLegs",
      "outputs": [
        {
          "internalType": "uint256",
          "name": "",
          "type": "uint256"
        }
      ],
      "stateMutability": "view",
      "type": "function",
      "constant": true
    },
    {
      "inputs": [
        {
          "internalType": "address",
          "name": "studentAddres",
          "type": "address"
        }
      ],
      "name": "readSex",
      "outputs": [
        {
          "internalType": "uint256",
          "name": "",
          "type": "uint256"
        }
      ],
      "stateMutability": "view",
      "type": "function",
      "constant": true
    },
    {
      "inputs": [
        {
          "internalType": "address",
          "name": "studentAddres",
          "type": "address"
        }
      ],
      "name": "readWings",
      "outputs": [
        {
          "internalType": "bool",
          "name": "",
          "type": "bool"
        }
      ],
      "stateMutability": "view",
      "type": "function",
      "constant": true
    },
    {
      "inputs": [
        {
          "internalType": "string[20]",
          "name": "_randomNames",
          "type": "string[20]"
        },
        {
          "internalType": "uint256[20]",
          "name": "_randomLegs",
          "type": "uint256[20]"
        },
        {
          "internalType": "uint256[20]",
          "name": "_randomSex",
          "type": "uint256[20]"
        },
        {
          "internalType": "bool[20]",
          "name": "_randomWings",
          "type": "bool[20]"
        }
      ],
      "name": "setRandomValuesStore",
      "outputs": [],
      "stateMutability": "nonpayable",
      "type": "function"
    }
  ],
  "bytecode": "0x60806040523480156200001157600080fd5b5060405162005f1438038062005f148339818101604052620000379190810190620000f1565b80600160006101000a81548173ffffffffffffffffffffffffffffffffffffffff021916908373ffffffffffffffffffffffffffffffffffffffff1602179055507f2915b3b4e0613c6b63dca39a375dd8c9f1de68d9e208a0713b7624260e2d0812600160009054906101000a900473ffffffffffffffffffffffffffffffffffffffff16604051620000cb91906200012e565b60405180910390a150620001ad565b600081519050620000eb8162000193565b92915050565b6000602082840312156200010457600080fd5b60006200011484828501620000da565b91505092915050565b62000128816200014b565b82525050565b60006020820190506200014560008301846200011d565b92915050565b6000620001588262000173565b9050919050565b60006200016c826200014b565b9050919050565b600073ffffffffffffffffffffffffffffffffffffffff82169050919050565b6200019e816200015f565b8114620001aa57600080fd5b50565b615d5780620001bd6000396000f3fe60806040526004361061012e5760003560e01c806374db455e116100ab578063df67f59d1161006f578063df67f59d146103be578063e2a51e64146103fb578063e7b8ef2414610412578063e9847a751461043b578063f0a47f7814610478578063f4fdbb88146104b557610135565b806374db455e146102ff578063806df959146103165780639201de55146103535780639aa99dd614610390578063dede624c146103a757610135565b806339119dce116100f257806339119dce1461021a5780634466f62d14610245578063469d2a83146102825780634cb6ad03146102bf578063614933ba146102d657610135565b80630b9612541461013757806314555c7a146101745780632236d3531461019d5780632e64c500146101c65780633842083a1461020357610135565b3661013557005b005b34801561014357600080fd5b5061015e60048036036101599190810190614b4e565b6104f2565b60405161016b9190615684565b60405180910390f35b34801561018057600080fd5b5061019b60048036036101969190810190614d50565b610525565b005b3480156101a957600080fd5b506101c460048036036101bf9190810190614cac565b610a20565b005b3480156101d257600080fd5b506101ed60048036036101e89190810190614ba0565b610d3c565b6040516101fa9190615669565b60405180910390f35b34801561020f57600080fd5b50610218610d6b565b005b34801561022657600080fd5b5061022f6113a2565b60405161023c91906159a8565b60405180910390f35b34801561025157600080fd5b5061026c60048036036102679190810190614b4e565b6113a8565b60405161027991906159a8565b60405180910390f35b34801561028e57600080fd5b506102a960048036036102a49190810190614b4e565b6113c0565b6040516102b691906159a8565b60405180910390f35b3480156102cb57600080fd5b506102d4611417565b005b3480156102e257600080fd5b506102fd60048036036102f89190810190614bdc565b611e33565b005b34801561030b57600080fd5b50610314611fd7565b005b34801561032257600080fd5b5061033d60048036036103389190810190614b4e565b612908565b60405161034a91906156ba565b60405180910390f35b34801561035f57600080fd5b5061037a60048036036103759190810190614c83565b6129f7565b60405161038791906156ba565b60405180910390f35b34801561039c57600080fd5b506103a5612b54565b005b3480156103b357600080fd5b506103bc612bc0565b005b3480156103ca57600080fd5b506103e560048036036103e09190810190614b4e565b6132b4565b6040516103f291906159a8565b60405180910390f35b34801561040757600080fd5b5061041061330b565b005b34801561041e57600080fd5b5061043960048036036104349190810190614d50565b613bf1565b005b34801561044757600080fd5b50610462600480360361045d9190810190614b4e565b614538565b60405161046f9190615669565b60405180910390f35b34801561048457600080fd5b5061049f600480360361049a9190810190614b4e565b6145a3565b6040516104ac9190615669565b60405180910390f35b3480156104c157600080fd5b506104dc60048036036104d79190810190614b4e565b6145c3565b6040516104e99190615669565b60405180910390f35b60036020528060005260406000206000915054906101000a900473ffffffffffffffffffffffffffffffffffffffff1681565b600260003373ffffffffffffffffffffffffffffffffffffffff1673ffffffffffffffffffffffffffffffffffffffff168152602001908152602001600020600080815260200190815260200160002060009054906101000a900460ff166105c2576040517f08c379a00000000000000000000000000000000000000000000000000000000081526004016105b990615928565b60405180910390fd5b60606105cd33612908565b905060006105da33614538565b905060006105e7336113c0565b905060006105f4336132b4565b90503073ffffffffffffffffffffffffffffffffffffffff16600360003373ffffffffffffffffffffffffffffffffffffffff1673ffffffffffffffffffffffffffffffffffffffff16815260200190815260200160002060009054906101000a900473ffffffffffffffffffffffffffffffffffffffff1673ffffffffffffffffffffffffffffffffffffffff16636352211e876040518263ffffffff1660e01b81526004016106a591906159a8565b60206040518083038186803b1580156106bd57600080fd5b505afa1580156106d1573d6000803e3d6000fd5b505050506040513d601f19601f820116820180604052506106f59190810190614b77565b73ffffffffffffffffffffffffffffffffffffffff161461074b576040517f08c379a0000000000000000000000000000000000000000000000000000000008152600401610742906158e8565b60405180910390fd5b60606000806000600360003373ffffffffffffffffffffffffffffffffffffffff1673ffffffffffffffffffffffffffffffffffffffff16815260200190815260200160002060009054906101000a900473ffffffffffffffffffffffffffffffffffffffff1673ffffffffffffffffffffffffffffffffffffffff1663b75e07508a6040518263ffffffff1660e01b81526004016107ea91906159a8565b600060405180830381600087803b15801561080457600080fd5b505af1158015610818573d6000803e3d6000fd5b505050506040513d6000823e3d601f19601f820116820180604052506108419190810190614cd5565b935093509350935061085388856145e3565b80156108625750821515871515145b801561086d57508186145b801561087857508085145b6108b7576040517f08c379a00000000000000000000000000000000000000000000000000000000081526004016108ae906158a8565b60405180910390fd5b600260003373ffffffffffffffffffffffffffffffffffffffff1673ffffffffffffffffffffffffffffffffffffffff16815260200190815260200160002060006002815260200190815260200160002060009054906101000a900460ff16610a15576001600260003373ffffffffffffffffffffffffffffffffffffffff1673ffffffffffffffffffffffffffffffffffffffff16815260200190815260200160002060006002815260200190815260200160002060006101000a81548160ff021916908315150217905550600160009054906101000a900473ffffffffffffffffffffffffffffffffffffffff1673ffffffffffffffffffffffffffffffffffffffff1663158a49883360026040518363ffffffff1660e01b81526004016109e2929190615640565b600060405180830381600087803b1580156109fc57600080fd5b505af1158015610a10573d6000803e3d6000fd5b505050505b505050505050505050565b600460008273ffffffffffffffffffffffffffffffffffffffff1673ffffffffffffffffffffffffffffffffffffffff16815260200190815260200160002060009054906101000a900460ff1615610a7757600080fd5b80600360003373ffffffffffffffffffffffffffffffffffffffff1673ffffffffffffffffffffffffffffffffffffffff16815260200190815260200160002060006101000a81548173ffffffffffffffffffffffffffffffffffffffff021916908373ffffffffffffffffffffffffffffffffffffffff1602179055506001600460008373ffffffffffffffffffffffffffffffffffffffff1673ffffffffffffffffffffffffffffffffffffffff16815260200190815260200160002060006101000a81548160ff021916908315150217905550600260003373ffffffffffffffffffffffffffffffffffffffff1673ffffffffffffffffffffffffffffffffffffffff168152602001908152602001600020600080815260200190815260200160002060009054906101000a900460ff16610d39576001600260003373ffffffffffffffffffffffffffffffffffffffff1673ffffffffffffffffffffffffffffffffffffffff168152602001908152602001600020600080815260200190815260200160002060006101000a81548160ff021916908315150217905550600160009054906101000a900473ffffffffffffffffffffffffffffffffffffffff1673ffffffffffffffffffffffffffffffffffffffff1663158a49883360026040518363ffffffff1660e01b8152600401610c76929190615640565b600060405180830381600087803b158015610c9057600080fd5b505af1158015610ca4573d6000803e3d6000fd5b50505050600160009054906101000a900473ffffffffffffffffffffffffffffffffffffffff1673ffffffffffffffffffffffffffffffffffffffff1663158a49883360026040518363ffffffff1660e01b8152600401610d06929190615640565b600060405180830381600087803b158015610d2057600080fd5b505af1158015610d34573d6000803e3d6000fd5b505050505b50565b60026020528160005260406000206020528060005260406000206000915091509054906101000a900460ff1681565b600260003373ffffffffffffffffffffffffffffffffffffffff1673ffffffffffffffffffffffffffffffffffffffff168152602001908152602001600020600080815260200190815260200160002060009054906101000a900460ff16610e08576040517f08c379a0000000000000000000000000000000000000000000000000000000008152600401610dff90615928565b60405180910390fd5b600360003373ffffffffffffffffffffffffffffffffffffffff1673ffffffffffffffffffffffffffffffffffffffff16815260200190815260200160002060009054906101000a900473ffffffffffffffffffffffffffffffffffffffff1673ffffffffffffffffffffffffffffffffffffffff1663c7b9cb0b306040518263ffffffff1660e01b8152600401610ea0919061559c565b602060405180830381600087803b158015610eba57600080fd5b505af1158015610ece573d6000803e3d6000fd5b505050506040513d601f19601f82011682018060405250610ef29190810190614c5a565b15610f32576040517f08c379a0000000000000000000000000000000000000000000000000000000008152600401610f2990615868565b60405180910390fd5b6000600360003373ffffffffffffffffffffffffffffffffffffffff1673ffffffffffffffffffffffffffffffffffffffff16815260200190815260200160002060009054906101000a900473ffffffffffffffffffffffffffffffffffffffff1673ffffffffffffffffffffffffffffffffffffffff1663216586586040518163ffffffff1660e01b8152600401602060405180830381600087803b158015610fdb57600080fd5b505af1158015610fef573d6000803e3d6000fd5b505050506040513d601f19601f820116820180604052506110139190810190614d79565b905080471015611058576040517f08c379a000000000000000000000000000000000000000000000000000000000815260040161104f90615948565b60405180910390fd5b600360003373ffffffffffffffffffffffffffffffffffffffff1673ffffffffffffffffffffffffffffffffffffffff16815260200190815260200160002060009054906101000a900473ffffffffffffffffffffffffffffffffffffffff1673ffffffffffffffffffffffffffffffffffffffff166341d30bae826040518263ffffffff1660e01b81526004016000604051808303818588803b1580156110ff57600080fd5b505af1158015611113573d6000803e3d6000fd5b5050505050600360003373ffffffffffffffffffffffffffffffffffffffff1673ffffffffffffffffffffffffffffffffffffffff16815260200190815260200160002060009054906101000a900473ffffffffffffffffffffffffffffffffffffffff1673ffffffffffffffffffffffffffffffffffffffff1663c7b9cb0b306040518263ffffffff1660e01b81526004016111b0919061559c565b602060405180830381600087803b1580156111ca57600080fd5b505af11580156111de573d6000803e3d6000fd5b505050506040513d601f19601f820116820180604052506112029190810190614c5a565b611241576040517f08c379a000000000000000000000000000000000000000000000000000000000815260040161123890615968565b60405180910390fd5b600260003373ffffffffffffffffffffffffffffffffffffffff1673ffffffffffffffffffffffffffffffffffffffff16815260200190815260200160002060006003815260200190815260200160002060009054906101000a900460ff1661139f576001600260003373ffffffffffffffffffffffffffffffffffffffff1673ffffffffffffffffffffffffffffffffffffffff16815260200190815260200160002060006003815260200190815260200160002060006101000a81548160ff021916908315150217905550600160009054906101000a900473ffffffffffffffffffffffffffffffffffffffff1673ffffffffffffffffffffffffffffffffffffffff1663158a49883360026040518363ffffffff1660e01b815260040161136c929190615640565b600060405180830381600087803b15801561138657600080fd5b505af115801561139a573d6000803e3d6000fd5b505050505b50565b60435481565b60426020528060005260406000206000915090505481565b60006019604260008473ffffffffffffffffffffffffffffffffffffffff1673ffffffffffffffffffffffffffffffffffffffff168152602001908152602001600020546014811061140e57fe5b01549050919050565b6000600360003373ffffffffffffffffffffffffffffffffffffffff1673ffffffffffffffffffffffffffffffffffffffff16815260200190815260200160002060009054906101000a900473ffffffffffffffffffffffffffffffffffffffff1673ffffffffffffffffffffffffffffffffffffffff166370a08231306040518263ffffffff1660e01b81526004016114b1919061559c565b60206040518083038186803b1580156114c957600080fd5b505afa1580156114dd573d6000803e3d6000fd5b505050506040513d601f19601f820116820180604052506115019190810190614d79565b90506000600360003373ffffffffffffffffffffffffffffffffffffffff1673ffffffffffffffffffffffffffffffffffffffff16815260200190815260200160002060009054906101000a900473ffffffffffffffffffffffffffffffffffffffff1673ffffffffffffffffffffffffffffffffffffffff16632f745c593060006040518363ffffffff1660e01b81526004016115a09291906155ee565b60206040518083038186803b1580156115b857600080fd5b505afa1580156115cc573d6000803e3d6000fd5b505050506040513d601f19601f820116820180604052506115f09190810190614d79565b9050600360003373ffffffffffffffffffffffffffffffffffffffff1673ffffffffffffffffffffffffffffffffffffffff16815260200190815260200160002060009054906101000a900473ffffffffffffffffffffffffffffffffffffffff1673ffffffffffffffffffffffffffffffffffffffff1663ec897772826040518263ffffffff1660e01b815260040161168a91906159a8565b600060405180830381600087803b1580156116a457600080fd5b505af11580156116b8573d6000803e3d6000fd5b505050506000600360003373ffffffffffffffffffffffffffffffffffffffff1673ffffffffffffffffffffffffffffffffffffffff16815260200190815260200160002060009054906101000a900473ffffffffffffffffffffffffffffffffffffffff1673ffffffffffffffffffffffffffffffffffffffff166370a08231306040518263ffffffff1660e01b8152600401611756919061559c565b60206040518083038186803b15801561176e57600080fd5b505afa158015611782573d6000803e3d6000fd5b505050506040513d601f19601f820116820180604052506117a69190810190614d79565b90506001818403146117ed576040517f08c379a00000000000000000000000000000000000000000000000000000000081526004016117e490615848565b60405180910390fd5b60606000806000600360003373ffffffffffffffffffffffffffffffffffffffff1673ffffffffffffffffffffffffffffffffffffffff16815260200190815260200160002060009054906101000a900473ffffffffffffffffffffffffffffffffffffffff1673ffffffffffffffffffffffffffffffffffffffff1663b75e0750876040518263ffffffff1660e01b815260040161188c91906159a8565b600060405180830381600087803b1580156118a657600080fd5b505af11580156118ba573d6000803e3d6000fd5b505050506040513d6000823e3d601f19601f820116820180604052506118e39190810190614cd5565b935093509350935061190460405180602001604052806000815250856145e3565b8015611914575082151560001515145b80156119205750816000145b801561192c5750806000145b61196b576040517f08c379a0000000000000000000000000000000000000000000000000000000008152600401611962906157a8565b60405180910390fd5b6000600360003373ffffffffffffffffffffffffffffffffffffffff1673ffffffffffffffffffffffffffffffffffffffff16815260200190815260200160002060009054906101000a900473ffffffffffffffffffffffffffffffffffffffff1673ffffffffffffffffffffffffffffffffffffffff16632f745c593360006040518363ffffffff1660e01b8152600401611a089291906155ee565b60206040518083038186803b158015611a2057600080fd5b505afa158015611a34573d6000803e3d6000fd5b505050506040513d601f19601f82011682018060405250611a589190810190614d79565b90503373ffffffffffffffffffffffffffffffffffffffff16600360003373ffffffffffffffffffffffffffffffffffffffff1673ffffffffffffffffffffffffffffffffffffffff16815260200190815260200160002060009054906101000a900473ffffffffffffffffffffffffffffffffffffffff1673ffffffffffffffffffffffffffffffffffffffff16636352211e836040518263ffffffff1660e01b8152600401611b0991906159a8565b60206040518083038186803b158015611b2157600080fd5b505afa158015611b35573d6000803e3d6000fd5b505050506040513d601f19601f82011682018060405250611b599190810190614b77565b73ffffffffffffffffffffffffffffffffffffffff1614611baf576040517f08c379a0000000000000000000000000000000000000000000000000000000008152600401611ba690615828565b60405180910390fd5b6000809050600360003373ffffffffffffffffffffffffffffffffffffffff1673ffffffffffffffffffffffffffffffffffffffff16815260200190815260200160002060009054906101000a900473ffffffffffffffffffffffffffffffffffffffff1673ffffffffffffffffffffffffffffffffffffffff1663ec897772836040518263ffffffff1660e01b8152600401611c4c91906159a8565b600060405180830381600087803b158015611c6657600080fd5b505af1925050508015611c77575060015b611c845760009050611c89565b600190505b8015611cca576040517f08c379a0000000000000000000000000000000000000000000000000000000008152600401611cc1906158c8565b60405180910390fd5b600260003373ffffffffffffffffffffffffffffffffffffffff1673ffffffffffffffffffffffffffffffffffffffff16815260200190815260200160002060006005815260200190815260200160002060009054906101000a900460ff16611e28576001600260003373ffffffffffffffffffffffffffffffffffffffff1673ffffffffffffffffffffffffffffffffffffffff16815260200190815260200160002060006005815260200190815260200160002060006101000a81548160ff021916908315150217905550600160009054906101000a900473ffffffffffffffffffffffffffffffffffffffff1673ffffffffffffffffffffffffffffffffffffffff1663158a49883360026040518363ffffffff1660e01b8152600401611df5929190615640565b600060405180830381600087803b158015611e0f57600080fd5b505af1158015611e23573d6000803e3d6000fd5b505050505b505050505050505050565b600160009054906101000a900473ffffffffffffffffffffffffffffffffffffffff1673ffffffffffffffffffffffffffffffffffffffff1663f0a47f78336040518263ffffffff1660e01b8152600401611e8e919061559c565b60206040518083038186803b158015611ea657600080fd5b505afa158015611eba573d6000803e3d6000fd5b505050506040513d601f19601f82011682018060405250611ede9190810190614c5a565b611ee757600080fd5b836005906014611ef892919061463c565b50826019906014611f0a92919061468f565b5081602d906014611f1c92919061468f565b50806041906014611f2e9291906146cf565b50600060438190555060008090505b6014811015611fd0577ff2537ffa858a0d83d85a3f54f39afe79a3edb9141e3802a7bde0b3131b60b814858260148110611f7357fe5b6020020151858360148110611f8457fe5b6020020151858460148110611f9557fe5b6020020151858560148110611fa657fe5b6020020151604051611fbb94939291906156dc565b60405180910390a18080600101915050611f3d565b5050505050565b600260003373ffffffffffffffffffffffffffffffffffffffff1673ffffffffffffffffffffffffffffffffffffffff168152602001908152602001600020600080815260200190815260200160002060009054906101000a900460ff16612074576040517f08c379a000000000000000000000000000000000000000000000000000000000815260040161206b90615928565b60405180910390fd5b600360003373ffffffffffffffffffffffffffffffffffffffff1673ffffffffffffffffffffffffffffffffffffffff16815260200190815260200160002060009054906101000a900473ffffffffffffffffffffffffffffffffffffffff1673ffffffffffffffffffffffffffffffffffffffff1663c7b9cb0b306040518263ffffffff1660e01b815260040161210c919061559c565b602060405180830381600087803b15801561212657600080fd5b505af115801561213a573d6000803e3d6000fd5b505050506040513d601f19601f8201168201806040525061215e9190810190614c5a565b61219d576040517f08c379a000000000000000000000000000000000000000000000000000000000815260040161219490615968565b60405180910390fd5b6000600360003373ffffffffffffffffffffffffffffffffffffffff1673ffffffffffffffffffffffffffffffffffffffff16815260200190815260200160002060009054906101000a900473ffffffffffffffffffffffffffffffffffffffff1673ffffffffffffffffffffffffffffffffffffffff166370a08231306040518263ffffffff1660e01b8152600401612237919061559c565b60206040518083038186803b15801561224f57600080fd5b505afa158015612263573d6000803e3d6000fd5b505050506040513d601f19601f820116820180604052506122879190810190614d79565b9050606061229433612908565b905060006122a133614538565b905060006122ae336113c0565b905060006122bb336132b4565b90506000600360003373ffffffffffffffffffffffffffffffffffffffff1673ffffffffffffffffffffffffffffffffffffffff16815260200190815260200160002060009054906101000a900473ffffffffffffffffffffffffffffffffffffffff1673ffffffffffffffffffffffffffffffffffffffff166332b0f376838587896040518563ffffffff1660e01b815260040161235d94939291906159ec565b602060405180830381600087803b15801561237757600080fd5b505af115801561238b573d6000803e3d6000fd5b505050506040513d601f19601f820116820180604052506123af9190810190614d79565b90503073ffffffffffffffffffffffffffffffffffffffff16600360003373ffffffffffffffffffffffffffffffffffffffff1673ffffffffffffffffffffffffffffffffffffffff16815260200190815260200160002060009054906101000a900473ffffffffffffffffffffffffffffffffffffffff1673ffffffffffffffffffffffffffffffffffffffff16636352211e836040518263ffffffff1660e01b815260040161246091906159a8565b60206040518083038186803b15801561247857600080fd5b505afa15801561248c573d6000803e3d6000fd5b505050506040513d601f19601f820116820180604052506124b09190810190614b77565b73ffffffffffffffffffffffffffffffffffffffff1614612506576040517f08c379a00000000000000000000000000000000000000000000000000000000081526004016124fd906158e8565b60405180910390fd5b60018601600360003373ffffffffffffffffffffffffffffffffffffffff1673ffffffffffffffffffffffffffffffffffffffff16815260200190815260200160002060009054906101000a900473ffffffffffffffffffffffffffffffffffffffff1673ffffffffffffffffffffffffffffffffffffffff166370a08231306040518263ffffffff1660e01b81526004016125a2919061559c565b60206040518083038186803b1580156125ba57600080fd5b505afa1580156125ce573d6000803e3d6000fd5b505050506040513d601f19601f820116820180604052506125f29190810190614d79565b14612632576040517f08c379a000000000000000000000000000000000000000000000000000000000815260040161262990615988565b60405180910390fd5b60606000806000600360003373ffffffffffffffffffffffffffffffffffffffff1673ffffffffffffffffffffffffffffffffffffffff16815260200190815260200160002060009054906101000a900473ffffffffffffffffffffffffffffffffffffffff1673ffffffffffffffffffffffffffffffffffffffff1663b75e0750866040518263ffffffff1660e01b81526004016126d191906159a8565b600060405180830381600087803b1580156126eb57600080fd5b505af11580156126ff573d6000803e3d6000fd5b505050506040513d6000823e3d601f19601f820116820180604052506127289190810190614cd5565b935093509350935061273a89856145e3565b80156127495750821515881515145b801561275457508187145b801561275f57508086145b61279e576040517f08c379a0000000000000000000000000000000000000000000000000000000008152600401612795906158a8565b60405180910390fd5b600260003373ffffffffffffffffffffffffffffffffffffffff1673ffffffffffffffffffffffffffffffffffffffff16815260200190815260200160002060006004815260200190815260200160002060009054906101000a900460ff166128fc576001600260003373ffffffffffffffffffffffffffffffffffffffff1673ffffffffffffffffffffffffffffffffffffffff16815260200190815260200160002060006004815260200190815260200160002060006101000a81548160ff021916908315150217905550600160009054906101000a900473ffffffffffffffffffffffffffffffffffffffff1673ffffffffffffffffffffffffffffffffffffffff1663158a49883360026040518363ffffffff1660e01b81526004016128c9929190615640565b600060405180830381600087803b1580156128e357600080fd5b505af11580156128f7573d6000803e3d6000fd5b505050505b50505050505050505050565b60606005604260008473ffffffffffffffffffffffffffffffffffffffff1673ffffffffffffffffffffffffffffffffffffffff168152602001908152602001600020546014811061295657fe5b018054600181600116156101000203166002900480601f0160208091040260200160405190810160405280929190818152602001828054600181600116156101000203166002900480156129eb5780601f106129c0576101008083540402835291602001916129eb565b820191906000526020600020905b8154815290600101906020018083116129ce57829003601f168201915b50505050509050919050565b606060008090505b60208160ff16108015612a4a5750600060f81b838260ff1660208110612a2157fe5b1a60f81b7effffffffffffffffffffffffffffffffffffffffffffffffffffffffffffff191614155b15612a5c5780806001019150506129ff565b60608160ff166040519080825280601f01601f191660200182016040528015612a945781602001600182028038833980820191505090505b509050600091505b60208260ff16108015612ae75750600060f81b848360ff1660208110612abe57fe5b1a60f81b7effffffffffffffffffffffffffffffffffffffffffffffffffffffffffffff191614155b15612b4a57838260ff1660208110612afb57fe5b1a60f81b818360ff1681518110612b0e57fe5b60200101907effffffffffffffffffffffffffffffffffffffffffffffffffffffffffffff1916908160001a9053508180600101925050612a9c565b8092505050919050565b604354604260003373ffffffffffffffffffffffffffffffffffffffff1673ffffffffffffffffffffffffffffffffffffffff168152602001908152602001600020819055506001604360008282540192505081905550601460435410612bbe5760006043819055505b565b600260003373ffffffffffffffffffffffffffffffffffffffff1673ffffffffffffffffffffffffffffffffffffffff168152602001908152602001600020600080815260200190815260200160002060009054906101000a900460ff16612c5d576040517f08c379a0000000000000000000000000000000000000000000000000000000008152600401612c5490615928565b60405180910390fd5b6001600360003373ffffffffffffffffffffffffffffffffffffffff1673ffffffffffffffffffffffffffffffffffffffff16815260200190815260200160002060009054906101000a900473ffffffffffffffffffffffffffffffffffffffff1673ffffffffffffffffffffffffffffffffffffffff166370a08231306040518263ffffffff1660e01b8152600401612cf7919061559c565b60206040518083038186803b158015612d0f57600080fd5b505afa158015612d23573d6000803e3d6000fd5b505050506040513d601f19601f82011682018060405250612d479190810190614d79565b14612d5157600080fd5b3073ffffffffffffffffffffffffffffffffffffffff16600360003373ffffffffffffffffffffffffffffffffffffffff1673ffffffffffffffffffffffffffffffffffffffff16815260200190815260200160002060009054906101000a900473ffffffffffffffffffffffffffffffffffffffff1673ffffffffffffffffffffffffffffffffffffffff16636352211e60016040518263ffffffff1660e01b8152600401612e01919061569f565b60206040518083038186803b158015612e1957600080fd5b505afa158015612e2d573d6000803e3d6000fd5b505050506040513d601f19601f82011682018060405250612e519190810190614b77565b73ffffffffffffffffffffffffffffffffffffffff1614612e7157600080fd5b600360003373ffffffffffffffffffffffffffffffffffffffff1673ffffffffffffffffffffffffffffffffffffffff16815260200190815260200160002060009054906101000a900473ffffffffffffffffffffffffffffffffffffffff1673ffffffffffffffffffffffffffffffffffffffff166342842e0e303360016040518463ffffffff1660e01b8152600401612f0e939291906155b7565b600060405180830381600087803b158015612f2857600080fd5b505af1158015612f3c573d6000803e3d6000fd5b505050506000600360003373ffffffffffffffffffffffffffffffffffffffff1673ffffffffffffffffffffffffffffffffffffffff16815260200190815260200160002060009054906101000a900473ffffffffffffffffffffffffffffffffffffffff1673ffffffffffffffffffffffffffffffffffffffff166370a08231306040518263ffffffff1660e01b8152600401612fda919061559c565b60206040518083038186803b158015612ff257600080fd5b505afa158015613006573d6000803e3d6000fd5b505050506040513d601f19601f8201168201806040525061302a9190810190614d79565b1461303457600080fd5b3373ffffffffffffffffffffffffffffffffffffffff16600360003373ffffffffffffffffffffffffffffffffffffffff1673ffffffffffffffffffffffffffffffffffffffff16815260200190815260200160002060009054906101000a900473ffffffffffffffffffffffffffffffffffffffff1673ffffffffffffffffffffffffffffffffffffffff16636352211e60016040518263ffffffff1660e01b81526004016130e4919061569f565b60206040518083038186803b1580156130fc57600080fd5b505afa158015613110573d6000803e3d6000fd5b505050506040513d601f19601f820116820180604052506131349190810190614b77565b73ffffffffffffffffffffffffffffffffffffffff161461315457600080fd5b600260003373ffffffffffffffffffffffffffffffffffffffff1673ffffffffffffffffffffffffffffffffffffffff16815260200190815260200160002060006001815260200190815260200160002060009054906101000a900460ff166132b2576001600260003373ffffffffffffffffffffffffffffffffffffffff1673ffffffffffffffffffffffffffffffffffffffff16815260200190815260200160002060006001815260200190815260200160002060006101000a81548160ff021916908315150217905550600160009054906101000a900473ffffffffffffffffffffffffffffffffffffffff1673ffffffffffffffffffffffffffffffffffffffff1663158a49883360026040518363ffffffff1660e01b815260040161327f929190615640565b600060405180830381600087803b15801561329957600080fd5b505af11580156132ad573d6000803e3d6000fd5b505050505b565b6000602d604260008473ffffffffffffffffffffffffffffffffffffffff1673ffffffffffffffffffffffffffffffffffffffff168152602001908152602001600020546014811061330257fe5b01549050919050565b6000600360003373ffffffffffffffffffffffffffffffffffffffff1673ffffffffffffffffffffffffffffffffffffffff16815260200190815260200160002060009054906101000a900473ffffffffffffffffffffffffffffffffffffffff1673ffffffffffffffffffffffffffffffffffffffff16632f745c593060006040518363ffffffff1660e01b81526004016133a89291906155ee565b60206040518083038186803b1580156133c057600080fd5b505afa1580156133d4573d6000803e3d6000fd5b505050506040513d601f19601f820116820180604052506133f89190810190614d79565b9050600360003373ffffffffffffffffffffffffffffffffffffffff1673ffffffffffffffffffffffffffffffffffffffff16815260200190815260200160002060009054906101000a900473ffffffffffffffffffffffffffffffffffffffff1673ffffffffffffffffffffffffffffffffffffffff1663c5f51f73826040518263ffffffff1660e01b815260040161349291906159a8565b60206040518083038186803b1580156134aa57600080fd5b505afa1580156134be573d6000803e3d6000fd5b505050506040513d601f19601f820116820180604052506134e29190810190614c5a565b15613522576040517f08c379a0000000000000000000000000000000000000000000000000000000008152600401613519906157c8565b60405180910390fd5b6000600360003373ffffffffffffffffffffffffffffffffffffffff1673ffffffffffffffffffffffffffffffffffffffff16815260200190815260200160002060009054906101000a900473ffffffffffffffffffffffffffffffffffffffff1673ffffffffffffffffffffffffffffffffffffffff16633573dbd1836040518263ffffffff1660e01b81526004016135bc91906159a8565b60206040518083038186803b1580156135d457600080fd5b505afa1580156135e8573d6000803e3d6000fd5b505050506040513d601f19601f8201168201806040525061360c9190810190614d79565b1461364c576040517f08c379a000000000000000000000000000000000000000000000000000000000815260040161364390615788565b60405180910390fd5b6000809050600360003373ffffffffffffffffffffffffffffffffffffffff1673ffffffffffffffffffffffffffffffffffffffff16815260200190815260200160002060009054906101000a900473ffffffffffffffffffffffffffffffffffffffff1673ffffffffffffffffffffffffffffffffffffffff16631a14e94a836040518263ffffffff1660e01b81526004016136e991906159a8565b600060405180830381600087803b15801561370357600080fd5b505af1925050508015613714575060015b6137215760009050613726565b600190505b8015613767576040517f08c379a000000000000000000000000000000000000000000000000000000000815260040161375e90615768565b60405180910390fd5b600360003373ffffffffffffffffffffffffffffffffffffffff1673ffffffffffffffffffffffffffffffffffffffff16815260200190815260200160002060009054906101000a900473ffffffffffffffffffffffffffffffffffffffff1673ffffffffffffffffffffffffffffffffffffffff166377386df383655af3107a40006040518363ffffffff1660e01b81526004016138079291906159c3565b600060405180830381600087803b15801561382157600080fd5b505af1158015613835573d6000803e3d6000fd5b50505050600360003373ffffffffffffffffffffffffffffffffffffffff1673ffffffffffffffffffffffffffffffffffffffff16815260200190815260200160002060009054906101000a900473ffffffffffffffffffffffffffffffffffffffff1673ffffffffffffffffffffffffffffffffffffffff1663c5f51f73836040518263ffffffff1660e01b81526004016138d191906159a8565b60206040518083038186803b1580156138e957600080fd5b505afa1580156138fd573d6000803e3d6000fd5b505050506040513d601f19601f820116820180604052506139219190810190614c5a565b613960576040517f08c379a000000000000000000000000000000000000000000000000000000000815260040161395790615808565b60405180910390fd5b655af3107a4000600360003373ffffffffffffffffffffffffffffffffffffffff1673ffffffffffffffffffffffffffffffffffffffff16815260200190815260200160002060009054906101000a900473ffffffffffffffffffffffffffffffffffffffff1673ffffffffffffffffffffffffffffffffffffffff16633573dbd1846040518263ffffffff1660e01b81526004016139ff91906159a8565b60206040518083038186803b158015613a1757600080fd5b505afa158015613a2b573d6000803e3d6000fd5b505050506040513d601f19601f82011682018060405250613a4f9190810190614d79565b14613a8f576040517f08c379a0000000000000000000000000000000000000000000000000000000008152600401613a86906157e8565b60405180910390fd5b600260003373ffffffffffffffffffffffffffffffffffffffff1673ffffffffffffffffffffffffffffffffffffffff1681526020019081526020016000206000603d815260200190815260200160002060009054906101000a900460ff16613bed576001600260003373ffffffffffffffffffffffffffffffffffffffff1673ffffffffffffffffffffffffffffffffffffffff1681526020019081526020016000206000603d815260200190815260200160002060006101000a81548160ff021916908315150217905550600160009054906101000a900473ffffffffffffffffffffffffffffffffffffffff1673ffffffffffffffffffffffffffffffffffffffff1663158a49883360016040518363ffffffff1660e01b8152600401613bba929190615617565b600060405180830381600087803b158015613bd457600080fd5b505af1158015613be8573d6000803e3d6000fd5b505050505b5050565b6000600360003373ffffffffffffffffffffffffffffffffffffffff1673ffffffffffffffffffffffffffffffffffffffff16815260200190815260200160002060009054906101000a900473ffffffffffffffffffffffffffffffffffffffff1673ffffffffffffffffffffffffffffffffffffffff166370a08231306040518263ffffffff1660e01b8152600401613c8b919061559c565b60206040518083038186803b158015613ca357600080fd5b505afa158015613cb7573d6000803e3d6000fd5b505050506040513d601f19601f82011682018060405250613cdb9190810190614d79565b90503073ffffffffffffffffffffffffffffffffffffffff16600360003373ffffffffffffffffffffffffffffffffffffffff1673ffffffffffffffffffffffffffffffffffffffff16815260200190815260200160002060009054906101000a900473ffffffffffffffffffffffffffffffffffffffff1673ffffffffffffffffffffffffffffffffffffffff16636352211e846040518263ffffffff1660e01b8152600401613d8c91906159a8565b60206040518083038186803b158015613da457600080fd5b505afa158015613db8573d6000803e3d6000fd5b505050506040513d601f19601f82011682018060405250613ddc9190810190614b77565b73ffffffffffffffffffffffffffffffffffffffff161415613e33576040517f08c379a0000000000000000000000000000000000000000000000000000000008152600401613e2a90615728565b60405180910390fd5b600360003373ffffffffffffffffffffffffffffffffffffffff1673ffffffffffffffffffffffffffffffffffffffff16815260200190815260200160002060009054906101000a900473ffffffffffffffffffffffffffffffffffffffff1673ffffffffffffffffffffffffffffffffffffffff1663c5f51f73836040518263ffffffff1660e01b8152600401613ecb91906159a8565b60206040518083038186803b158015613ee357600080fd5b505afa158015613ef7573d6000803e3d6000fd5b505050506040513d601f19601f82011682018060405250613f1b9190810190614c5a565b613f5a576040517f08c379a0000000000000000000000000000000000000000000000000000000008152600401613f5190615748565b60405180910390fd5b6000600360003373ffffffffffffffffffffffffffffffffffffffff1673ffffffffffffffffffffffffffffffffffffffff16815260200190815260200160002060009054906101000a900473ffffffffffffffffffffffffffffffffffffffff1673ffffffffffffffffffffffffffffffffffffffff16633573dbd1846040518263ffffffff1660e01b8152600401613ff491906159a8565b60206040518083038186803b15801561400c57600080fd5b505afa158015614020573d6000803e3d6000fd5b505050506040513d601f19601f820116820180604052506140449190810190614d79565b905080471015614089576040517f08c379a000000000000000000000000000000000000000000000000000000000815260040161408090615888565b60405180910390fd5b600360003373ffffffffffffffffffffffffffffffffffffffff1673ffffffffffffffffffffffffffffffffffffffff16815260200190815260200160002060009054906101000a900473ffffffffffffffffffffffffffffffffffffffff1673ffffffffffffffffffffffffffffffffffffffff16631a14e94a82856040518363ffffffff1660e01b815260040161412291906159a8565b6000604051808303818588803b15801561413b57600080fd5b505af115801561414f573d6000803e3d6000fd5b50505050503073ffffffffffffffffffffffffffffffffffffffff16600360003373ffffffffffffffffffffffffffffffffffffffff1673ffffffffffffffffffffffffffffffffffffffff16815260200190815260200160002060009054906101000a900473ffffffffffffffffffffffffffffffffffffffff1673ffffffffffffffffffffffffffffffffffffffff16636352211e856040518263ffffffff1660e01b815260040161420391906159a8565b60206040518083038186803b15801561421b57600080fd5b505afa15801561422f573d6000803e3d6000fd5b505050506040513d601f19601f820116820180604052506142539190810190614b77565b73ffffffffffffffffffffffffffffffffffffffff16146142a9576040517f08c379a00000000000000000000000000000000000000000000000000000000081526004016142a090615908565b60405180910390fd5b60018201600360003373ffffffffffffffffffffffffffffffffffffffff1673ffffffffffffffffffffffffffffffffffffffff16815260200190815260200160002060009054906101000a900473ffffffffffffffffffffffffffffffffffffffff1673ffffffffffffffffffffffffffffffffffffffff166370a08231306040518263ffffffff1660e01b8152600401614345919061559c565b60206040518083038186803b15801561435d57600080fd5b505afa158015614371573d6000803e3d6000fd5b505050506040513d601f19601f820116820180604052506143959190810190614d79565b146143d5576040517f08c379a00000000000000000000000000000000000000000000000000000000081526004016143cc90615988565b60405180910390fd5b600260003373ffffffffffffffffffffffffffffffffffffffff1673ffffffffffffffffffffffffffffffffffffffff1681526020019081526020016000206000603e815260200190815260200160002060009054906101000a900460ff16614533576001600260003373ffffffffffffffffffffffffffffffffffffffff1673ffffffffffffffffffffffffffffffffffffffff1681526020019081526020016000206000603e815260200190815260200160002060006101000a81548160ff021916908315150217905550600160009054906101000a900473ffffffffffffffffffffffffffffffffffffffff1673ffffffffffffffffffffffffffffffffffffffff1663158a49883360026040518363ffffffff1660e01b8152600401614500929190615640565b600060405180830381600087803b15801561451a57600080fd5b505af115801561452e573d6000803e3d6000fd5b505050505b505050565b60006041604260008473ffffffffffffffffffffffffffffffffffffffff1673ffffffffffffffffffffffffffffffffffffffff168152602001908152602001600020546014811061458657fe5b602091828204019190069054906101000a900460ff169050919050565b60006020528060005260406000206000915054906101000a900460ff1681565b60046020528060005260406000206000915054906101000a900460ff1681565b6000816040516020016145f69190615585565b604051602081830303815290604052805190602001208360405160200161461d9190615585565b6040516020818303038152906040528051906020012014905092915050565b826014810192821561467e579160200282015b8281111561467d57825182908051906020019061466d929190614768565b509160200191906001019061464f565b5b50905061468b91906147e8565b5090565b82601481019282156146be579160200282015b828111156146bd5782518255916020019190600101906146a2565b5b5090506146cb9190614814565b5090565b826014601f016020900481019282156147575791602002820160005b8382111561472857835183826101000a81548160ff02191690831515021790555092602001926001016020816000010492830192600103026146eb565b80156147555782816101000a81549060ff0219169055600101602081600001049283019260010302614728565b505b5090506147649190614839565b5090565b828054600181600116156101000203166002900490600052602060002090601f016020900481019282601f106147a957805160ff19168380011785556147d7565b828001600101855582156147d7579182015b828111156147d65782518255916020019190600101906147bb565b5b5090506147e49190614814565b5090565b61481191905b8082111561480d57600081816148049190614869565b506001016147ee565b5090565b90565b61483691905b8082111561483257600081600090555060010161481a565b5090565b90565b61486691905b8082111561486257600081816101000a81549060ff02191690555060010161483f565b5090565b90565b50805460018160011615610100020316600290046000825580601f1061488f57506148ae565b601f0160209004906000526020600020908101906148ad9190614814565b5b50565b6000813590506148c081615cae565b92915050565b6000815190506148d581615cae565b92915050565b600082601f8301126148ec57600080fd5b60146148ff6148fa82615a65565b615a38565b9150818385602084028201111561491557600080fd5b60005b83811015614945578161492b8882614a28565b845260208401935060208301925050600181019050614918565b5050505092915050565b600082601f83011261496057600080fd5b601461497361496e82615a87565b615a38565b9150818360005b838110156149aa57813586016149908882614a7c565b84526020840193506020830192505060018101905061497a565b5050505092915050565b600082601f8301126149c557600080fd5b60146149d86149d382615aa9565b615a38565b915081838560208402820111156149ee57600080fd5b60005b83811015614a1e5781614a048882614b24565b8452602084019350602083019250506001810190506149f1565b5050505092915050565b600081359050614a3781615cc5565b92915050565b600081519050614a4c81615cc5565b92915050565b600081359050614a6181615cdc565b92915050565b600081359050614a7681615cf3565b92915050565b600082601f830112614a8d57600080fd5b8135614aa0614a9b82615acb565b615a38565b91508082526020830160208301858383011115614abc57600080fd5b614ac7838284615c5b565b50505092915050565b600082601f830112614ae157600080fd5b8151614af4614aef82615af7565b615a38565b91508082526020830160208301858383011115614b1057600080fd5b614b1b838284615c6a565b50505092915050565b600081359050614b3381615d0a565b92915050565b600081519050614b4881615d0a565b92915050565b600060208284031215614b6057600080fd5b6000614b6e848285016148b1565b91505092915050565b600060208284031215614b8957600080fd5b6000614b97848285016148c6565b91505092915050565b60008060408385031215614bb357600080fd5b6000614bc1858286016148b1565b9250506020614bd285828601614b24565b9150509250929050565b6000806000806107a08587031215614bf357600080fd5b600085013567ffffffffffffffff811115614c0d57600080fd5b614c198782880161494f565b9450506020614c2a878288016149b4565b9350506102a0614c3c878288016149b4565b925050610520614c4e878288016148db565b91505092959194509250565b600060208284031215614c6c57600080fd5b6000614c7a84828501614a3d565b91505092915050565b600060208284031215614c9557600080fd5b6000614ca384828501614a52565b91505092915050565b600060208284031215614cbe57600080fd5b6000614ccc84828501614a67565b91505092915050565b60008060008060808587031215614ceb57600080fd5b600085015167ffffffffffffffff811115614d0557600080fd5b614d1187828801614ad0565b9450506020614d2287828801614a3d565b9350506040614d3387828801614b39565b9250506060614d4487828801614b39565b91505092959194509250565b600060208284031215614d6257600080fd5b6000614d7084828501614b24565b91505092915050565b600060208284031215614d8b57600080fd5b6000614d9984828501614b39565b91505092915050565b614dab81615bb9565b82525050565b614dba81615b67565b82525050565b614dc981615bcb565b82525050565b614dd881615bef565b82525050565b614de781615c01565b82525050565b614df681615c13565b82525050565b614e0581615c25565b82525050565b6000614e1682615b2e565b614e208185615b39565b9350614e30818560208601615c6a565b614e3981615c9d565b840191505092915050565b6000614e4f82615b2e565b614e598185615b4a565b9350614e69818560208601615c6a565b80840191505092915050565b6000614e8082615b23565b614e8a8185615b39565b9350614e9a818560208601615c6a565b614ea381615c9d565b840191505092915050565b6000614ebb602183615b39565b91507f5468697320616e696d616c20616c72656164792062656c6f6e677320746f206d60008301527f65000000000000000000000000000000000000000000000000000000000000006020830152604082019050919050565b6000614f21601b83615b39565b91507f5468697320616e696d616c206973206e6f7420666f722073616c6500000000006000830152602082019050919050565b6000614f61602883615b39565b91507f49207761732061626c6520746f2062757920616e20616e696d616c206e6f742060008301527f666f722073616c650000000000000000000000000000000000000000000000006020830152604082019050919050565b6000614fc7602183615b39565b91507f416e696d616c206173206e6f74206265656e2061756374696f6e6e656420796560008301527f74000000000000000000000000000000000000000000000000000000000000006020830152604082019050919050565b600061502d602983615b39565b91507f4b696c6c656420616e696d616c20636861726163746572697374696373206e6f60008301527f74207265736574656400000000000000000000000000000000000000000000006020830152604082019050919050565b6000615093601783615b39565b91507f416e696d616c206e6f7420666f722073616c65207965740000000000000000006000830152602082019050919050565b60006150d3601983615b39565b91507f416e696d616c20707269636520697320696e636f7272656374000000000000006000830152602082019050919050565b6000615113601383615b39565b91507f416e696d616c206e6f7420666f722073616c65000000000000000000000000006000830152602082019050919050565b6000615153601a83615b39565b91507f596f75206861766520746f20686f6c6420616e20616e696d616c0000000000006000830152602082019050919050565b6000615193603183615b39565b91507f4576616c7561746f7220686173207468652073616d6520616d6f756e74206f6660008301527f20746f6b656e73206173206265666f72650000000000000000000000000000006020830152604082019050919050565b60006151f9601c83615b39565b91507f4576616c7561746f7220697320616c72656164792062726565646572000000006000830152602082019050919050565b6000615239602383615b39565b91507f596f757220616e696d616c20697320746f6f20657870656e7369766520666f7260008301527f206d6500000000000000000000000000000000000000000000000000000000006020830152604082019050919050565b600061529f603383615b39565b91507f4372656174656420616e696d616c20646f65736e2774206861766520636f727260008301527f65637420636861726163746572697374696373000000000000000000000000006020830152604082019050919050565b6000615305602683615b39565b91507f4576616c7561746f72207761732061626c6520746f206b696c6c20796f75722060008301527f616e696d616c00000000000000000000000000000000000000000000000000006020830152604082019050919050565b600061536b602a83615b39565b91507f4372656174656420616e696d616c20646f65736e27742062656c6f6e6720746f60008301527f204576616c7561746f72000000000000000000000000000000000000000000006020830152604082019050919050565b60006153d1602583615b39565b91507f5468697320616e696d616c20776173206e6f74207472616e736665727265642060008301527f746f206d650000000000000000000000000000000000000000000000000000006020830152604082019050919050565b6000615437601583615b39565b91507f4e6f20736f6c7574696f6e207375626d697474656400000000000000000000006000830152602082019050919050565b6000615477602f83615b39565b91507f4576616c7561746f7220646f6573206e6f74206861766520656e6f756768204560008301527f54482c20706c7a206769762065746800000000000000000000000000000000006020830152604082019050919050565b60006154dd601a83615b39565b91507f4576616c7561746f72206973206e6f74206120627265656465720000000000006000830152602082019050919050565b600061551d602283615b39565b91507f4576616c7561746f722062616c616e636520646964206e6f7420696e6372656160008301527f73650000000000000000000000000000000000000000000000000000000000006020830152604082019050919050565b61557f81615baf565b82525050565b60006155918284614e44565b915081905092915050565b60006020820190506155b16000830184614da2565b92915050565b60006060820190506155cc6000830186614da2565b6155d96020830185614da2565b6155e66040830184614ded565b949350505050565b60006040820190506156036000830185614da2565b6156106020830184614dcf565b9392505050565b600060408201905061562c6000830185614da2565b6156396020830184614ded565b9392505050565b60006040820190506156556000830185614da2565b6156626020830184614dfc565b9392505050565b600060208201905061567e6000830184614db1565b92915050565b60006020820190506156996000830184614dc0565b92915050565b60006020820190506156b46000830184614ded565b92915050565b600060208201905081810360008301526156d48184614e0b565b905092915050565b600060808201905081810360008301526156f68187614e75565b90506157056020830186615576565b6157126040830185615576565b61571f6060830184614db1565b95945050505050565b6000602082019050818103600083015261574181614eae565b9050919050565b6000602082019050818103600083015261576181614f14565b9050919050565b6000602082019050818103600083015261578181614f54565b9050919050565b600060208201905081810360008301526157a181614fba565b9050919050565b600060208201905081810360008301526157c181615020565b9050919050565b600060208201905081810360008301526157e181615086565b9050919050565b60006020820190508181036000830152615801816150c6565b9050919050565b6000602082019050818103600083015261582181615106565b9050919050565b6000602082019050818103600083015261584181615146565b9050919050565b6000602082019050818103600083015261586181615186565b9050919050565b60006020820190508181036000830152615881816151ec565b9050919050565b600060208201905081810360008301526158a18161522c565b9050919050565b600060208201905081810360008301526158c181615292565b9050919050565b600060208201905081810360008301526158e1816152f8565b9050919050565b600060208201905081810360008301526159018161535e565b9050919050565b60006020820190508181036000830152615921816153c4565b9050919050565b600060208201905081810360008301526159418161542a565b9050919050565b600060208201905081810360008301526159618161546a565b9050919050565b60006020820190508181036000830152615981816154d0565b9050919050565b600060208201905081810360008301526159a181615510565b9050919050565b60006020820190506159bd6000830184615576565b92915050565b60006040820190506159d86000830185615576565b6159e56020830184614dde565b9392505050565b6000608082019050615a016000830187615576565b615a0e6020830186615576565b615a1b6040830185614db1565b8181036060830152615a2d8184614e0b565b905095945050505050565b6000604051905081810181811067ffffffffffffffff82111715615a5b57600080fd5b8060405250919050565b600067ffffffffffffffff821115615a7c57600080fd5b602082029050919050565b600067ffffffffffffffff821115615a9e57600080fd5b602082029050919050565b600067ffffffffffffffff821115615ac057600080fd5b602082029050919050565b600067ffffffffffffffff821115615ae257600080fd5b601f19601f8301169050602081019050919050565b600067ffffffffffffffff821115615b0e57600080fd5b601f19601f8301169050602081019050919050565b600081519050919050565b600081519050919050565b600082825260208201905092915050565b600081905092915050565b6000615b6082615b8f565b9050919050565b60008115159050919050565b6000819050919050565b6000615b8882615b55565b9050919050565b600073ffffffffffffffffffffffffffffffffffffffff82169050919050565b6000819050919050565b6000615bc482615c37565b9050919050565b6000615bd682615bdd565b9050919050565b6000615be882615b8f565b9050919050565b6000615bfa82615baf565b9050919050565b6000615c0c82615baf565b9050919050565b6000615c1e82615baf565b9050919050565b6000615c3082615baf565b9050919050565b6000615c4282615c49565b9050919050565b6000615c5482615b8f565b9050919050565b82818337600083830152505050565b60005b83811015615c88578082015181840152602081019050615c6d565b83811115615c97576000848401525b50505050565b6000601f19601f8301169050919050565b615cb781615b55565b8114615cc257600080fd5b50565b615cce81615b67565b8114615cd957600080fd5b50565b615ce581615b73565b8114615cf057600080fd5b50565b615cfc81615b7d565b8114615d0757600080fd5b50565b615d1381615baf565b8114615d1e57600080fd5b5056fea2646970667358221220853ab09b932a7c06654d8c3168dd6f85752d598d422e1e3e97a5f4a9a378ed1164736f6c63430006020033",
  "source": "pragma solidity ^0.6.0;\r\npragma experimental ABIEncoderV2;\r\n\r\nimport \"./ERC20TD.sol\";\r\nimport \"./IExerciceSolution.sol\";\r\n\r\ncontract Evaluator \r\n{\r\n\r\n\tmapping(address => bool) public teachers;\r\n\tERC20TD TDERC20;\r\n\r\n \tmapping(address => mapping(uint256 => bool)) public exerciceProgression;\r\n \tmapping(address => IExerciceSolution) public studentExerciceSolution;\r\n \tmapping(address => bool) public hasBeenPaired;\r\n \t\r\n\tstring[20] private randomNames;\r\n\tuint256[20] private randomLegs;\r\n\tuint256[20] private randomSex;\r\n\tbool[20] private randomWings;\r\n\tmapping(address => uint256) public assignedRank;\r\n\tuint public nextValueStoreRank;\r\n\r\n \tevent newRandomAnimalAttributes(string name, uint256 legs, uint256 sex, bool wings);\r\n \tevent constructedCorrectly(address erc20Address);\r\n\t\r\n\tconstructor(ERC20TD _TDERC20) \r\n\tpublic \r\n\t{\r\n\t\tTDERC20 = _TDERC20;\r\n\t\temit constructedCorrectly(address(TDERC20));\r\n\t}\r\n\r\n\tfallback () external payable \r\n\t{}\r\n\r\n\treceive () external payable \r\n\t{}\r\n\r\n\tfunction ex1_testERC721()\r\n\tpublic\t\r\n\t{\r\n\t\t// Checking a solution was submitted\r\n\t\trequire(exerciceProgression[msg.sender][0], \"No solution submitted\");\r\n\r\n\t\t// Check that token 1 belongs to the Evaluator\r\n\t\trequire(studentExerciceSolution[msg.sender].balanceOf(address(this)) == 1);\r\n\t\trequire(studentExerciceSolution[msg.sender].ownerOf(1) == address(this));\r\n\t\t// Check that token 1 can be transferred back to msg.sender\r\n\t\tstudentExerciceSolution[msg.sender].safeTransferFrom(address(this), msg.sender, 1);\r\n\t\trequire(studentExerciceSolution[msg.sender].balanceOf(address(this)) == 0);\r\n\t\trequire(studentExerciceSolution[msg.sender].ownerOf(1) == msg.sender);\r\n\r\n\t\t// Crediting points\r\n\t\tif (!exerciceProgression[msg.sender][1])\r\n\t\t{\r\n\t\t\texerciceProgression[msg.sender][1] = true;\r\n\t\t\t// ERC721 points\r\n\t\t\tTDERC20.distributeTokens(msg.sender, 2);\r\n\t\t}\r\n\t}\r\n\r\n\tfunction ex2a_getAnimalToCreateAttributes()\r\n\tpublic\r\n\t{\r\n\t\tassignedRank[msg.sender] = nextValueStoreRank;\r\n\t\tnextValueStoreRank += 1;\r\n\t\tif (nextValueStoreRank >= 20)\r\n\t\t{\r\n\t\t\tnextValueStoreRank = 0;\r\n\t\t}\r\n\t}\r\n\r\n\tfunction ex2b_testDeclaredAnimal(uint animalNumber)\r\n\tpublic\t\r\n\t{\r\n\t\t// Checking a solution was submitted\r\n\t\trequire(exerciceProgression[msg.sender][0], \"No solution submitted\");\r\n\r\n\t\t// Verify that contract is a registeredBreeder \r\n\t\tstring memory name = readName(msg.sender);\r\n\t\tbool wings = readWings(msg.sender);\r\n\t\tuint legs = readLegs(msg.sender);\r\n\t\tuint sex = readSex(msg.sender);\r\n\r\n\t\t// Check animal belongs to Evaluator\r\n\t\trequire(studentExerciceSolution[msg.sender].ownerOf(animalNumber) == address(this), \"Created animal doesn't belong to Evaluator\");\r\n\r\n\t\t// Check that properties are visible \r\n\t\t(string memory _name, bool _wings, uint _legs, uint _sex) = studentExerciceSolution[msg.sender].getAnimalCharacteristics(animalNumber);\r\n\t\trequire(_compareStrings(name,_name) && (wings == _wings) && (legs == _legs) && (sex == _sex), \"Created animal doesn't have correct characteristics\");\r\n\r\n\t\t// Crediting points\r\n\t\tif (!exerciceProgression[msg.sender][2])\r\n\t\t{\r\n\t\t\texerciceProgression[msg.sender][2] = true;\r\n\t\t\tTDERC20.distributeTokens(msg.sender, 2);\r\n\t\t}\r\n\t}\r\n\r\n\tfunction ex3_testRegisterBreeder()\r\n\tpublic\t\r\n\t{\r\n\t\t// Checking a solution was submitted\r\n\t\trequire(exerciceProgression[msg.sender][0], \"No solution submitted\");\r\n\r\n\t\t// Verify that contract is not a registeredBreeder yet\r\n\t\trequire(!studentExerciceSolution[msg.sender].isBreeder(address(this)), \"Evaluator is already breeder\");\r\n\r\n\t\t// Register as a breeder\r\n\t\tuint256 registrationPrice = studentExerciceSolution[msg.sender].registrationPrice();\r\n\t\trequire(address(this).balance >= registrationPrice, \"Evaluator does not have enough ETH, plz giv eth\");\r\n\t\tstudentExerciceSolution[msg.sender].registerMeAsBreeder.value(registrationPrice)();\r\n\t\trequire(studentExerciceSolution[msg.sender].isBreeder(address(this)), \"Evaluator is not a breeder\");\r\n\t\t// Crediting points\r\n\t\tif (!exerciceProgression[msg.sender][3])\r\n\t\t{\r\n\t\t\texerciceProgression[msg.sender][3] = true;\r\n\t\t\tTDERC20.distributeTokens(msg.sender, 2);\r\n\t\t}\r\n\t}\r\n\r\n\tfunction ex4_testDeclareAnimal()\r\n\tpublic\t\r\n\t{\r\n\t\t// Checking a solution was submitted\r\n\t\trequire(exerciceProgression[msg.sender][0], \"No solution submitted\");\r\n\r\n\t\t// Verify that contract is a registeredBreeder \r\n\t\trequire(studentExerciceSolution[msg.sender].isBreeder(address(this)), \"Evaluator is not a breeder\");\r\n\t\tuint256 initBalance = studentExerciceSolution[msg.sender].balanceOf(address(this));\r\n\t\tstring memory name = readName(msg.sender);\r\n\t\tbool wings = readWings(msg.sender);\r\n\t\tuint legs = readLegs(msg.sender);\r\n\t\tuint sex = readSex(msg.sender);\r\n\t\t// Declare an animal \t\r\n\t\tuint animalNumber = studentExerciceSolution[msg.sender].declareAnimal(sex, legs, wings, name);\r\n\r\n\t\t// Check animal belongs to Evaluator\r\n\t\trequire(studentExerciceSolution[msg.sender].ownerOf(animalNumber) == address(this), \"Created animal doesn't belong to Evaluator\");\r\n\t\trequire(studentExerciceSolution[msg.sender].balanceOf(address(this)) == initBalance + 1, \"Evaluator balance did not increase\");\r\n\r\n\t\t// Check that properties are visible \r\n\t\t(string memory _name, bool _wings, uint _legs, uint _sex) = studentExerciceSolution[msg.sender].getAnimalCharacteristics(animalNumber);\r\n\t\trequire(_compareStrings(name,_name) && (wings == _wings) && (legs == _legs) && (sex == _sex), \"Created animal doesn't have correct characteristics\");\r\n\r\n\t\t// Crediting points\r\n\t\tif (!exerciceProgression[msg.sender][4])\r\n\t\t{\r\n\t\t\texerciceProgression[msg.sender][4] = true;\r\n\t\t\tTDERC20.distributeTokens(msg.sender, 2);\r\n\t\t}\r\n\t}\r\n\r\n\tfunction ex5_declareDeadAnimal()\r\n\tpublic\t\r\n\t{\t\r\n\t\t// Getting initial token balance. Must be at least 1\r\n\t\tuint256 initBalance = studentExerciceSolution[msg.sender].balanceOf(address(this));\r\n\t\t\r\n\t\t// Getting an animal id of Evaluator\r\n\t\tuint animalNumber = studentExerciceSolution[msg.sender].tokenOfOwnerByIndex(address(this), 0);\r\n\r\n\t\t// Declaring it as dead\r\n\t\tstudentExerciceSolution[msg.sender].declareDeadAnimal(animalNumber);\t\t\r\n\r\n\t\t// Checking end balance\r\n\t\tuint256 endBalance = studentExerciceSolution[msg.sender].balanceOf(address(this));\r\n\t\trequire(initBalance - endBalance == 1, \"Evaluator has the same amount of tokens as before\");\r\n\r\n\t\t// Check that properties are deleted \r\n\t\t(string memory _name, bool _wings, uint _legs, uint _sex) = studentExerciceSolution[msg.sender].getAnimalCharacteristics(animalNumber);\r\n\t\trequire(_compareStrings(\"\",_name) && (false == _wings) && (0 == _legs) && (0 == _sex), \"Killed animal characteristics not reseted\");\r\n\r\n\t\t// Testing killing another person's animal. The caller has to hold an animal\r\n\t\tuint exerciceSolutionAnimalNumber = studentExerciceSolution[msg.sender].tokenOfOwnerByIndex(msg.sender, 0);\r\n\t\trequire(studentExerciceSolution[msg.sender].ownerOf(exerciceSolutionAnimalNumber) == msg.sender, \"You have to hold an animal\");\r\n\r\n\t\t// Evaluator tries to declare a dead animal that does not belong to him\r\n\t\tbool wasKillAccepted = false;\r\n\t\ttry studentExerciceSolution[msg.sender].declareDeadAnimal(exerciceSolutionAnimalNumber)\r\n\t\t{\r\n\t\t\twasKillAccepted = true;\r\n        } \r\n        catch \r\n        {\r\n            // This is executed in case revert() was used.\r\n            wasKillAccepted = false;\r\n        }\r\n\r\n        require(!wasKillAccepted, \"Evaluator was able to kill your animal\");\r\n\r\n\r\n\t\t// Crediting points\r\n\t\tif (!exerciceProgression[msg.sender][5])\r\n\t\t{\r\n\t\t\texerciceProgression[msg.sender][5] = true;\r\n\t\t\tTDERC20.distributeTokens(msg.sender, 2);\r\n\t\t}\r\n\t}\r\n\r\n\tfunction ex6a_auctionAnimal_offer()\r\n\tpublic\r\n\t{\r\n\t\t// Offer an animal for sale. Evaluator must hold at least one animal.\r\n\t\t// Getting an animal id of Evaluator\r\n\t\tuint animalNumber = studentExerciceSolution[msg.sender].tokenOfOwnerByIndex(address(this), 0);\r\n\r\n\t\t// Testing that animal is not for sale yet\r\n\t\trequire(!studentExerciceSolution[msg.sender].isAnimalForSale(animalNumber), \"Animal not for sale yet\" );\r\n\t\trequire(studentExerciceSolution[msg.sender].animalPrice(animalNumber) == 0, \"Animal as not been auctionned yet\");\r\n\r\n\t\t// Trying to buy animal not for sale\r\n\t\tbool wasBuyAccepted = false;\r\n\t\ttry studentExerciceSolution[msg.sender].buyAnimal(animalNumber)\r\n\t\t{\r\n\t\t\twasBuyAccepted = true;\r\n        } \r\n        catch \r\n        {\r\n            // This is executed in case revert() was used.\r\n            wasBuyAccepted = false;\r\n        }\r\n        require(!wasBuyAccepted, \"I was able to buy an animal not for sale\");\r\n\r\n\r\n        // Offering animal for sale\r\n        studentExerciceSolution[msg.sender].offerForSale(animalNumber, 0.0001 ether);\r\n\r\n        // Checking it is for sale\r\n        require(studentExerciceSolution[msg.sender].isAnimalForSale(animalNumber), \"Animal not for sale\" );\r\n\t\trequire(studentExerciceSolution[msg.sender].animalPrice(animalNumber) == 0.0001 ether, \"Animal price is incorrect\");\r\n\r\n\t\t// Crediting points\r\n\t\tif (!exerciceProgression[msg.sender][61])\r\n\t\t{\r\n\t\t\texerciceProgression[msg.sender][61] = true;\r\n\t\t\tTDERC20.distributeTokens(msg.sender, 1);\r\n\t\t}\r\n\t}\r\n\r\n\tfunction ex6b_auctionAnimal_buy(uint animalForSale)\r\n\tpublic\r\n\t{\r\n\t\t// Buy an animal that is on sale. \r\n\t\t// Getting initial token balance\r\n\t\tuint256 initBalance = studentExerciceSolution[msg.sender].balanceOf(address(this));\r\n\r\n\t\t// Verify the animal does not belong to evaluator\r\n\t\trequire(studentExerciceSolution[msg.sender].ownerOf(animalForSale) != address(this), \"This animal already belongs to me\");\r\n\r\n\t\t// Verify that the animal is offered for sale \r\n\t\trequire(studentExerciceSolution[msg.sender].isAnimalForSale(animalForSale), \"This animal is not for sale\");\r\n\r\n\t\t// Check the price of animal\r\n\t\tuint animalPrice = studentExerciceSolution[msg.sender].animalPrice(animalForSale);\r\n\t\trequire(address(this).balance >= animalPrice, \"Your animal is too expensive for me\");\r\n\r\n\t\t// Buy the animal\r\n\t\tstudentExerciceSolution[msg.sender].buyAnimal.value(animalPrice)(animalForSale);\r\n\r\n\t\t// Check that it is mine\r\n\t\trequire(studentExerciceSolution[msg.sender].ownerOf(animalForSale) == address(this), \"This animal was not transferred to me\");\r\n\t\trequire(studentExerciceSolution[msg.sender].balanceOf(address(this)) == initBalance + 1, \"Evaluator balance did not increase\");\r\n\r\n\t\t// Crediting points\r\n\t\tif (!exerciceProgression[msg.sender][62])\r\n\t\t{\r\n\t\t\texerciceProgression[msg.sender][62] = true;\r\n\t\t\tTDERC20.distributeTokens(msg.sender, 2);\r\n\t\t}\r\n\r\n\t}\r\n\r\n\t/* Internal functions and modifiers */ \r\n\tfunction submitExercice(IExerciceSolution studentExercice)\r\n\tpublic\r\n\t{\r\n\t\t// Checking this contract was not used by another group before\r\n\t\trequire(!hasBeenPaired[address(studentExercice)]);\r\n\r\n\t\t// Assigning passed ERC20 as student ERC20\r\n\t\tstudentExerciceSolution[msg.sender] = studentExercice;\r\n\t\thasBeenPaired[address(studentExercice)] = true;\r\n\r\n\t\tif (!exerciceProgression[msg.sender][0])\r\n\t\t{\r\n\t\t\texerciceProgression[msg.sender][0] = true;\r\n\t\t\t// setup points\r\n\t\t\tTDERC20.distributeTokens(msg.sender, 2);\r\n\t\t\t// Deploying contract points\r\n\t\t\tTDERC20.distributeTokens(msg.sender, 2);\r\n\t\t}\r\n\t}\r\n\r\n\tmodifier onlyTeachers() \r\n\t{\r\n\r\n\t    require(TDERC20.teachers(msg.sender));\r\n\t    _;\r\n\t}\r\n\r\n\tfunction _compareStrings(string memory a, string memory b) \r\n\tinternal \r\n\tpure \r\n\treturns (bool) \r\n\t{\r\n    \treturn (keccak256(abi.encodePacked((a))) == keccak256(abi.encodePacked((b))));\r\n\t}\r\n\r\n\tfunction bytes32ToString(bytes32 _bytes32) \r\n\tpublic \r\n\tpure returns (string memory) \r\n\t{\r\n        uint8 i = 0;\r\n        while(i < 32 && _bytes32[i] != 0) {\r\n            i++;\r\n        }\r\n        bytes memory bytesArray = new bytes(i);\r\n        for (i = 0; i < 32 && _bytes32[i] != 0; i++) {\r\n            bytesArray[i] = _bytes32[i];\r\n        }\r\n        return string(bytesArray);\r\n    }\r\n\r\n    function readName(address studentAddres)\r\n\tpublic\r\n\tview\r\n\treturns(string memory)\r\n\t{\r\n\t\treturn randomNames[assignedRank[studentAddres]];\r\n\t}\r\n\r\n\tfunction readLegs(address studentAddres)\r\n\tpublic\r\n\tview\r\n\treturns(uint256)\r\n\t{\r\n\t\treturn randomLegs[assignedRank[studentAddres]];\r\n\t}\r\n\r\n\tfunction readSex(address studentAddres)\r\n\tpublic\r\n\tview\r\n\treturns(uint256)\r\n\t{\r\n\t\treturn randomSex[assignedRank[studentAddres]];\r\n\t}\r\n\r\n\tfunction readWings(address studentAddres)\r\n\tpublic\r\n\tview\r\n\treturns(bool)\r\n\t{\r\n\t\treturn randomWings[assignedRank[studentAddres]];\r\n\t}\r\n\r\n\tfunction setRandomValuesStore(string[20] memory _randomNames, uint256[20] memory _randomLegs, uint256[20] memory _randomSex, bool[20] memory _randomWings) \r\n\tpublic \r\n\tonlyTeachers\r\n\t{\r\n\t\trandomNames = _randomNames;\r\n\t\trandomLegs = _randomLegs;\r\n\t\trandomSex = _randomSex;\r\n\t\trandomWings = _randomWings;\r\n\t\tnextValueStoreRank = 0;\r\n\t\tfor (uint i = 0; i < 20; i++)\r\n\t\t{\r\n\t\t\temit newRandomAnimalAttributes(_randomNames[i], _randomLegs[i], _randomSex[i], _randomWings[i]);\r\n\t\t}\r\n\t}\r\n\r\n}\r\n",
  "sourcePath": "C:/Users/Admin/Documents/Semestre 7/Blockchain programming/TD5/Ferme/erc721-101/contracts/Evaluator.sol",
  "compiler": {
    "name": "solc",
    "version": "0.6.2+commit.bacdbe57.Emscripten.clang"
  },
  "schemaVersion": "3.4.1",
  "updatedAt": "2021-12-10T02:35:01.328Z",
  "networkType": "ethereum",
  "devdoc": {
    "methods": {}
  },
  "userdoc": {
    "methods": {}
  }
}