{
  "contractName": "ExerciceSolution",
  "abi": [
    {
      "inputs": [
        {
          "internalType": "string",
          "name": "_name",
          "type": "string"
        },
        {
          "internalType": "string",
          "name": "_symbol",
          "type": "string"
        }
      ],
      "stateMutability": "nonpayable",
      "type": "constructor"
    },
    {
      "anonymous": false,
      "inputs": [
        {
          "indexed": true,
          "internalType": "address",
          "name": "owner",
          "type": "address"
        },
        {
          "indexed": true,
          "internalType": "address",
          "name": "approved",
          "type": "address"
        },
        {
          "indexed": true,
          "internalType": "uint256",
          "name": "tokenId",
          "type": "uint256"
        }
      ],
      "name": "Approval",
      "type": "event"
    },
    {
      "anonymous": false,
      "inputs": [
        {
          "indexed": true,
          "internalType": "address",
          "name": "owner",
          "type": "address"
        },
        {
          "indexed": true,
          "internalType": "address",
          "name": "operator",
          "type": "address"
        },
        {
          "indexed": false,
          "internalType": "bool",
          "name": "approved",
          "type": "bool"
        }
      ],
      "name": "ApprovalForAll",
      "type": "event"
    },
    {
      "anonymous": false,
      "inputs": [
        {
          "indexed": true,
          "internalType": "address",
          "name": "from",
          "type": "address"
        },
        {
          "indexed": true,
          "internalType": "address",
          "name": "to",
          "type": "address"
        },
        {
          "indexed": true,
          "internalType": "uint256",
          "name": "tokenId",
          "type": "uint256"
        }
      ],
      "name": "Transfer",
      "type": "event"
    },
    {
      "inputs": [
        {
          "internalType": "address",
          "name": "",
          "type": "address"
        }
      ],
      "name": "_breeder",
      "outputs": [
        {
          "internalType": "bool",
          "name": "",
          "type": "bool"
        }
      ],
      "stateMutability": "view",
      "type": "function",
      "constant": true
    },
    {
      "inputs": [
        {
          "internalType": "uint256",
          "name": "",
          "type": "uint256"
        }
      ],
      "name": "_tokens",
      "outputs": [
        {
          "internalType": "uint256",
          "name": "id",
          "type": "uint256"
        },
        {
          "internalType": "string",
          "name": "name",
          "type": "string"
        },
        {
          "internalType": "bool",
          "name": "wings",
          "type": "bool"
        },
        {
          "internalType": "uint256",
          "name": "legs",
          "type": "uint256"
        },
        {
          "internalType": "uint256",
          "name": "sex",
          "type": "uint256"
        },
        {
          "internalType": "bool",
          "name": "isForSale",
          "type": "bool"
        },
        {
          "internalType": "uint256",
          "name": "price",
          "type": "uint256"
        }
      ],
      "stateMutability": "view",
      "type": "function",
      "constant": true
    },
    {
      "inputs": [
        {
          "internalType": "address",
          "name": "to",
          "type": "address"
        },
        {
          "internalType": "uint256",
          "name": "tokenId",
          "type": "uint256"
        }
      ],
      "name": "approve",
      "outputs": [],
      "stateMutability": "nonpayable",
      "type": "function"
    },
    {
      "inputs": [
        {
          "internalType": "address",
          "name": "owner",
          "type": "address"
        }
      ],
      "name": "balanceOf",
      "outputs": [
        {
          "internalType": "uint256",
          "name": "",
          "type": "uint256"
        }
      ],
      "stateMutability": "view",
      "type": "function",
      "constant": true
    },
    {
      "inputs": [],
      "name": "baseURI",
      "outputs": [
        {
          "internalType": "string",
          "name": "",
          "type": "string"
        }
      ],
      "stateMutability": "view",
      "type": "function",
      "constant": true
    },
    {
      "inputs": [
        {
          "internalType": "uint256",
          "name": "tokenId",
          "type": "uint256"
        }
      ],
      "name": "getApproved",
      "outputs": [
        {
          "internalType": "address",
          "name": "",
          "type": "address"
        }
      ],
      "stateMutability": "view",
      "type": "function",
      "constant": true
    },
    {
      "inputs": [
        {
          "internalType": "address",
          "name": "owner",
          "type": "address"
        },
        {
          "internalType": "address",
          "name": "operator",
          "type": "address"
        }
      ],
      "name": "isApprovedForAll",
      "outputs": [
        {
          "internalType": "bool",
          "name": "",
          "type": "bool"
        }
      ],
      "stateMutability": "view",
      "type": "function",
      "constant": true
    },
    {
      "inputs": [],
      "name": "name",
      "outputs": [
        {
          "internalType": "string",
          "name": "",
          "type": "string"
        }
      ],
      "stateMutability": "view",
      "type": "function",
      "constant": true
    },
    {
      "inputs": [
        {
          "internalType": "uint256",
          "name": "tokenId",
          "type": "uint256"
        }
      ],
      "name": "ownerOf",
      "outputs": [
        {
          "internalType": "address",
          "name": "",
          "type": "address"
        }
      ],
      "stateMutability": "view",
      "type": "function",
      "constant": true
    },
    {
      "inputs": [
        {
          "internalType": "address",
          "name": "from",
          "type": "address"
        },
        {
          "internalType": "address",
          "name": "to",
          "type": "address"
        },
        {
          "internalType": "uint256",
          "name": "tokenId",
          "type": "uint256"
        }
      ],
      "name": "safeTransferFrom",
      "outputs": [],
      "stateMutability": "nonpayable",
      "type": "function"
    },
    {
      "inputs": [
        {
          "internalType": "address",
          "name": "from",
          "type": "address"
        },
        {
          "internalType": "address",
          "name": "to",
          "type": "address"
        },
        {
          "internalType": "uint256",
          "name": "tokenId",
          "type": "uint256"
        },
        {
          "internalType": "bytes",
          "name": "_data",
          "type": "bytes"
        }
      ],
      "name": "safeTransferFrom",
      "outputs": [],
      "stateMutability": "nonpayable",
      "type": "function"
    },
    {
      "inputs": [
        {
          "internalType": "address",
          "name": "operator",
          "type": "address"
        },
        {
          "internalType": "bool",
          "name": "approved",
          "type": "bool"
        }
      ],
      "name": "setApprovalForAll",
      "outputs": [],
      "stateMutability": "nonpayable",
      "type": "function"
    },
    {
      "inputs": [
        {
          "internalType": "bytes4",
          "name": "interfaceId",
          "type": "bytes4"
        }
      ],
      "name": "supportsInterface",
      "outputs": [
        {
          "internalType": "bool",
          "name": "",
          "type": "bool"
        }
      ],
      "stateMutability": "view",
      "type": "function",
      "constant": true
    },
    {
      "inputs": [],
      "name": "symbol",
      "outputs": [
        {
          "internalType": "string",
          "name": "",
          "type": "string"
        }
      ],
      "stateMutability": "view",
      "type": "function",
      "constant": true
    },
    {
      "inputs": [
        {
          "internalType": "uint256",
          "name": "index",
          "type": "uint256"
        }
      ],
      "name": "tokenByIndex",
      "outputs": [
        {
          "internalType": "uint256",
          "name": "",
          "type": "uint256"
        }
      ],
      "stateMutability": "view",
      "type": "function",
      "constant": true
    },
    {
      "inputs": [
        {
          "internalType": "address",
          "name": "owner",
          "type": "address"
        },
        {
          "internalType": "uint256",
          "name": "index",
          "type": "uint256"
        }
      ],
      "name": "tokenOfOwnerByIndex",
      "outputs": [
        {
          "internalType": "uint256",
          "name": "",
          "type": "uint256"
        }
      ],
      "stateMutability": "view",
      "type": "function",
      "constant": true
    },
    {
      "inputs": [
        {
          "internalType": "uint256",
          "name": "tokenId",
          "type": "uint256"
        }
      ],
      "name": "tokenURI",
      "outputs": [
        {
          "internalType": "string",
          "name": "",
          "type": "string"
        }
      ],
      "stateMutability": "view",
      "type": "function",
      "constant": true
    },
    {
      "inputs": [],
      "name": "totalSupply",
      "outputs": [
        {
          "internalType": "uint256",
          "name": "",
          "type": "uint256"
        }
      ],
      "stateMutability": "view",
      "type": "function",
      "constant": true
    },
    {
      "inputs": [
        {
          "internalType": "address",
          "name": "from",
          "type": "address"
        },
        {
          "internalType": "address",
          "name": "to",
          "type": "address"
        },
        {
          "internalType": "uint256",
          "name": "tokenId",
          "type": "uint256"
        }
      ],
      "name": "transferFrom",
      "outputs": [],
      "stateMutability": "nonpayable",
      "type": "function"
    },
    {
      "inputs": [
        {
          "internalType": "address",
          "name": "account",
          "type": "address"
        }
      ],
      "name": "isBreeder",
      "outputs": [
        {
          "internalType": "bool",
          "name": "",
          "type": "bool"
        }
      ],
      "stateMutability": "view",
      "type": "function",
      "constant": true
    },
    {
      "inputs": [],
      "name": "registrationPrice",
      "outputs": [
        {
          "internalType": "uint256",
          "name": "",
          "type": "uint256"
        }
      ],
      "stateMutability": "view",
      "type": "function",
      "constant": true
    },
    {
      "inputs": [],
      "name": "registerMeAsBreeder",
      "outputs": [],
      "stateMutability": "payable",
      "type": "function",
      "payable": true
    },
    {
      "inputs": [
        {
          "internalType": "uint256",
          "name": "sex",
          "type": "uint256"
        },
        {
          "internalType": "uint256",
          "name": "legs",
          "type": "uint256"
        },
        {
          "internalType": "bool",
          "name": "wings",
          "type": "bool"
        },
        {
          "internalType": "string",
          "name": "name",
          "type": "string"
        }
      ],
      "name": "declareAnimal",
      "outputs": [
        {
          "internalType": "uint256",
          "name": "",
          "type": "uint256"
        }
      ],
      "stateMutability": "nonpayable",
      "type": "function"
    },
    {
      "inputs": [
        {
          "internalType": "uint256",
          "name": "animalNumber",
          "type": "uint256"
        }
      ],
      "name": "getAnimalCharacteristics",
      "outputs": [
        {
          "internalType": "string",
          "name": "_name",
          "type": "string"
        },
        {
          "internalType": "bool",
          "name": "_wings",
          "type": "bool"
        },
        {
          "internalType": "uint256",
          "name": "_legs",
          "type": "uint256"
        },
        {
          "internalType": "uint256",
          "name": "_sex",
          "type": "uint256"
        }
      ],
      "stateMutability": "view",
      "type": "function",
      "constant": true
    },
    {
      "inputs": [
        {
          "internalType": "uint256",
          "name": "animalNumber",
          "type": "uint256"
        }
      ],
      "name": "declareDeadAnimal",
      "outputs": [],
      "stateMutability": "nonpayable",
      "type": "function"
    },
    {
      "inputs": [
        {
          "internalType": "uint256",
          "name": "animalNumber",
          "type": "uint256"
        }
      ],
      "name": "isAnimalForSale",
      "outputs": [
        {
          "internalType": "bool",
          "name": "",
          "type": "bool"
        }
      ],
      "stateMutability": "view",
      "type": "function",
      "constant": true
    },
    {
      "inputs": [
        {
          "internalType": "uint256",
          "name": "animalNumber",
          "type": "uint256"
        }
      ],
      "name": "animalPrice",
      "outputs": [
        {
          "internalType": "uint256",
          "name": "",
          "type": "uint256"
        }
      ],
      "stateMutability": "view",
      "type": "function",
      "constant": true
    },
    {
      "inputs": [
        {
          "internalType": "uint256",
          "name": "animalNumber",
          "type": "uint256"
        }
      ],
      "name": "buyAnimal",
      "outputs": [],
      "stateMutability": "payable",
      "type": "function",
      "payable": true
    },
    {
      "inputs": [
        {
          "internalType": "uint256",
          "name": "animalNumber",
          "type": "uint256"
        },
        {
          "internalType": "uint256",
          "name": "price",
          "type": "uint256"
        }
      ],
      "name": "offerForSale",
      "outputs": [],
      "stateMutability": "nonpayable",
      "type": "function"
    },
    {
      "inputs": [],
      "name": "lastMintedToken",
      "outputs": [
        {
          "internalType": "uint256",
          "name": "",
          "type": "uint256"
        }
      ],
      "stateMutability": "view",
      "type": "function",
      "constant": true
    }
  ],
  "bytecode": "0x60806040523480156200001157600080fd5b506040516200424938038062004249833981810160405260408110156200003757600080fd5b81019080805160405193929190846401000000008211156200005857600080fd5b838201915060208201858111156200006f57600080fd5b82518660018202830111640100000000821117156200008d57600080fd5b8083526020830192505050908051906020019080838360005b83811015620000c3578082015181840152602081019050620000a6565b50505050905090810190601f168015620000f15780820380516001836020036101000a031916815260200191505b50604052602001805160405193929190846401000000008211156200011557600080fd5b838201915060208201858111156200012c57600080fd5b82518660018202830111640100000000821117156200014a57600080fd5b8083526020830192505050908051906020019080838360005b838110156200018057808201518184015260208101905062000163565b50505050905090810190601f168015620001ae5780820380516001836020036101000a031916815260200191505b506040525050508181620001cf6301ffc9a760e01b6200032460201b60201c565b8160069080519060200190620001e79291906200042d565b508060079080519060200190620002009291906200042d565b50620002196380ac58cd60e01b6200032460201b60201c565b62000231635b5e139f60e01b6200032460201b60201c565b6200024963780e9d6360e01b6200032460201b60201c565b50506000600a81905550662386f26fc10000600d8190555033600e60006101000a81548173ffffffffffffffffffffffffffffffffffffffff021916908373ffffffffffffffffffffffffffffffffffffffff1602179055506001600c6000600e60009054906101000a900473ffffffffffffffffffffffffffffffffffffffff1673ffffffffffffffffffffffffffffffffffffffff1673ffffffffffffffffffffffffffffffffffffffff16815260200190815260200160002060006101000a81548160ff0219169083151502179055505050620004dc565b63ffffffff60e01b817bffffffffffffffffffffffffffffffffffffffffffffffffffffffff19161415620003c1576040517f08c379a000000000000000000000000000000000000000000000000000000000815260040180806020018281038252601c8152602001807f4552433136353a20696e76616c696420696e746572666163652069640000000081525060200191505060405180910390fd5b6001600080837bffffffffffffffffffffffffffffffffffffffffffffffffffffffff19167bffffffffffffffffffffffffffffffffffffffffffffffffffffffff1916815260200190815260200160002060006101000a81548160ff02191690831515021790555050565b828054600181600116156101000203166002900490600052602060002090601f016020900481019282601f106200047057805160ff1916838001178555620004a1565b82800160010185558215620004a1579182015b82811115620004a057825182559160200191906001019062000483565b5b509050620004b09190620004b4565b5090565b620004d991905b80821115620004d5576000816000905550600101620004bb565b5090565b90565b613d5d80620004ec6000396000f3fe6080604052600436106101cd5760003560e01c80636c0360eb116100f7578063b88d4fde11610095578063e985e9c511610064578063e985e9c514610d4f578063ec52d43214610dd8578063ec89777214610e03578063ed70554d14610e3e576101cd565b8063b88d4fde14610acd578063c5f51f7314610bdf578063c7b9cb0b14610c32578063c87b56dd14610c9b576101cd565b806395d89b41116100d157806395d89b41146108aa5780639e4df74f1461093a578063a22cb465146109a3578063b75e075014610a00576101cd565b80636c0360eb1461077057806370a082311461080057806377386df314610865576101cd565b806323b872dd1161016f57806341d30bae1161013e57806341d30bae1461062157806342842e0e1461062b5780634f6ccce7146106a65780636352211e146106f5576101cd565b806323b872dd1461042e5780632f745c59146104a957806332b0f376146105185780633573dbd1146105d2576101cd565b8063095ea7b3116101ab578063095ea7b31461034f57806318160ddd146103aa5780631a14e94a146103d55780632165865814610403576101cd565b806301ffc9a7146101d257806306fdde0314610244578063081812fc146102d4575b600080fd5b3480156101de57600080fd5b5061022a600480360360208110156101f557600080fd5b8101908080357bffffffffffffffffffffffffffffffffffffffffffffffffffffffff19169060200190929190505050610f24565b604051808215151515815260200191505060405180910390f35b34801561025057600080fd5b50610259610f8b565b6040518080602001828103825283818151815260200191508051906020019080838360005b8381101561029957808201518184015260208101905061027e565b50505050905090810190601f1680156102c65780820380516001836020036101000a031916815260200191505b509250505060405180910390f35b3480156102e057600080fd5b5061030d600480360360208110156102f757600080fd5b810190808035906020019092919050505061102d565b604051808273ffffffffffffffffffffffffffffffffffffffff1673ffffffffffffffffffffffffffffffffffffffff16815260200191505060405180910390f35b34801561035b57600080fd5b506103a86004803603604081101561037257600080fd5b81019080803573ffffffffffffffffffffffffffffffffffffffff169060200190929190803590602001909291905050506110c8565b005b3480156103b657600080fd5b506103bf61120c565b6040518082815260200191505060405180910390f35b610401600480360360208110156103eb57600080fd5b810190808035906020019092919050505061121d565b005b34801561040f57600080fd5b506104186114d5565b6040518082815260200191505060405180910390f35b34801561043a57600080fd5b506104a76004803603606081101561045157600080fd5b81019080803573ffffffffffffffffffffffffffffffffffffffff169060200190929190803573ffffffffffffffffffffffffffffffffffffffff169060200190929190803590602001909291905050506114df565b005b3480156104b557600080fd5b50610502600480360360408110156104cc57600080fd5b81019080803573ffffffffffffffffffffffffffffffffffffffff16906020019092919080359060200190929190505050611555565b6040518082815260200191505060405180910390f35b34801561052457600080fd5b506105bc6004803603608081101561053b57600080fd5b8101908080359060200190929190803590602001909291908035151590602001909291908035906020019064010000000081111561057857600080fd5b82018360208201111561058a57600080fd5b803590602001918460018302840111640100000000831117156105ac57600080fd5b90919293919293905050506115b0565b6040518082815260200191505060405180910390f35b3480156105de57600080fd5b5061060b600480360360208110156105f557600080fd5b8101908080359060200190929190505050611706565b6040518082815260200191505060405180910390f35b610629611726565b005b34801561063757600080fd5b506106a46004803603606081101561064e57600080fd5b81019080803573ffffffffffffffffffffffffffffffffffffffff169060200190929190803573ffffffffffffffffffffffffffffffffffffffff1690602001909291908035906020019092919050505061178e565b005b3480156106b257600080fd5b506106df600480360360208110156106c957600080fd5b81019080803590602001909291905050506117ae565b6040518082815260200191505060405180910390f35b34801561070157600080fd5b5061072e6004803603602081101561071857600080fd5b81019080803590602001909291905050506117d1565b604051808273ffffffffffffffffffffffffffffffffffffffff1673ffffffffffffffffffffffffffffffffffffffff16815260200191505060405180910390f35b34801561077c57600080fd5b50610785611808565b6040518080602001828103825283818151815260200191508051906020019080838360005b838110156107c55780820151818401526020810190506107aa565b50505050905090810190601f1680156107f25780820380516001836020036101000a031916815260200191505b509250505060405180910390f35b34801561080c57600080fd5b5061084f6004803603602081101561082357600080fd5b81019080803573ffffffffffffffffffffffffffffffffffffffff1690602001909291905050506118aa565b6040518082815260200191505060405180910390f35b34801561087157600080fd5b506108a86004803603604081101561088857600080fd5b81019080803590602001909291908035906020019092919050505061197f565b005b3480156108b657600080fd5b506108bf611a0f565b6040518080602001828103825283818151815260200191508051906020019080838360005b838110156108ff5780820151818401526020810190506108e4565b50505050905090810190601f16801561092c5780820380516001836020036101000a031916815260200191505b509250505060405180910390f35b34801561094657600080fd5b506109896004803603602081101561095d57600080fd5b81019080803573ffffffffffffffffffffffffffffffffffffffff169060200190929190505050611ab1565b604051808215151515815260200191505060405180910390f35b3480156109af57600080fd5b506109fe600480360360408110156109c657600080fd5b81019080803573ffffffffffffffffffffffffffffffffffffffff169060200190929190803515159060200190929190505050611ad1565b005b348015610a0c57600080fd5b50610a3960048036036020811015610a2357600080fd5b8101908080359060200190929190505050611c89565b604051808060200185151515158152602001848152602001838152602001828103825286818151815260200191508051906020019080838360005b83811015610a8f578082015181840152602081019050610a74565b50505050905090810190601f168015610abc5780820380516001836020036101000a031916815260200191505b509550505050505060405180910390f35b348015610ad957600080fd5b50610bdd60048036036080811015610af057600080fd5b81019080803573ffffffffffffffffffffffffffffffffffffffff169060200190929190803573ffffffffffffffffffffffffffffffffffffffff1690602001909291908035906020019092919080359060200190640100000000811115610b5757600080fd5b820183602082011115610b6957600080fd5b80359060200191846001830284011164010000000083111715610b8b57600080fd5b91908080601f016020809104026020016040519081016040528093929190818152602001838380828437600081840152601f19601f820116905080830192505050505050509192919290505050611ecd565b005b348015610beb57600080fd5b50610c1860048036036020811015610c0257600080fd5b8101908080359060200190929190505050611f45565b604051808215151515815260200191505060405180910390f35b348015610c3e57600080fd5b50610c8160048036036020811015610c5557600080fd5b81019080803573ffffffffffffffffffffffffffffffffffffffff169060200190929190505050611f72565b604051808215151515815260200191505060405180910390f35b348015610ca757600080fd5b50610cd460048036036020811015610cbe57600080fd5b8101908080359060200190929190505050611fc8565b6040518080602001828103825283818151815260200191508051906020019080838360005b83811015610d14578082015181840152602081019050610cf9565b50505050905090810190601f168015610d415780820380516001836020036101000a031916815260200191505b509250505060405180910390f35b348015610d5b57600080fd5b50610dbe60048036036040811015610d7257600080fd5b81019080803573ffffffffffffffffffffffffffffffffffffffff169060200190929190803573ffffffffffffffffffffffffffffffffffffffff169060200190929190505050612299565b604051808215151515815260200191505060405180910390f35b348015610de457600080fd5b50610ded61232d565b6040518082815260200191505060405180910390f35b348015610e0f57600080fd5b50610e3c60048036036020811015610e2657600080fd5b8101908080359060200190929190505050612337565b005b348015610e4a57600080fd5b50610e7760048036036020811015610e6157600080fd5b81019080803590602001909291905050506123f3565b60405180888152602001806020018715151515815260200186815260200185815260200184151515158152602001838152602001828103825288818151815260200191508051906020019080838360005b83811015610ee3578082015181840152602081019050610ec8565b50505050905090810190601f168015610f105780820380516001836020036101000a031916815260200191505b509850505050505050505060405180910390f35b6000806000837bffffffffffffffffffffffffffffffffffffffffffffffffffffffff19167bffffffffffffffffffffffffffffffffffffffffffffffffffffffff1916815260200190815260200160002060009054906101000a900460ff169050919050565b606060068054600181600116156101000203166002900480601f0160208091040260200160405190810160405280929190818152602001828054600181600116156101000203166002900480156110235780601f10610ff857610100808354040283529160200191611023565b820191906000526020600020905b81548152906001019060200180831161100657829003601f168201915b5050505050905090565b6000611038826124e7565b61108d576040517f08c379a000000000000000000000000000000000000000000000000000000000815260040180806020018281038252602c815260200180613c52602c913960400191505060405180910390fd5b6004600083815260200190815260200160002060009054906101000a900473ffffffffffffffffffffffffffffffffffffffff169050919050565b60006110d3826117d1565b90508073ffffffffffffffffffffffffffffffffffffffff168373ffffffffffffffffffffffffffffffffffffffff16141561115a576040517f08c379a0000000000000000000000000000000000000000000000000000000008152600401808060200182810382526021815260200180613cd66021913960400191505060405180910390fd5b8073ffffffffffffffffffffffffffffffffffffffff16611179612504565b73ffffffffffffffffffffffffffffffffffffffff1614806111a857506111a7816111a2612504565b612299565b5b6111fd576040517f08c379a0000000000000000000000000000000000000000000000000000000008152600401808060200182810382526038815260200180613ba56038913960400191505060405180910390fd5b611207838361250c565b505050565b600061121860026125c5565b905090565b6112256139ac565b600b60008381526020019081526020016000206040518060e001604052908160008201548152602001600182018054600181600116156101000203166002900480601f0160208091040260200160405190810160405280929190818152602001828054600181600116156101000203166002900480156112e65780601f106112bb576101008083540402835291602001916112e6565b820191906000526020600020905b8154815290600101906020018083116112c957829003601f168201915b505050505081526020016002820160009054906101000a900460ff1615151515815260200160038201548152602001600482015481526020016005820160009054906101000a900460ff1615151515815260200160068201548152505090508060a001516113bc576040517f08c379a00000000000000000000000000000000000000000000000000000000081526004018080602001828103825260168152602001807f416e696d616c206973206e6f7420666f722073616c650000000000000000000081525060200191505060405180910390fd5b8060c0015134146113cc57600080fd5b60006113d7836117d1565b9050600060608273ffffffffffffffffffffffffffffffffffffffff163460405180600001905060006040518083038185875af1925050503d806000811461143b576040519150601f19603f3d011682016040523d82523d6000602084013e611440565b606091505b5091509150816114b8576040517f08c379a00000000000000000000000000000000000000000000000000000000081526004018080602001828103825260188152602001807f4661696c656420746f207472616e73666572204574686572000000000000000081525060200191505060405180910390fd5b6114c38333876125da565b8360a001600015158152505050505050565b6000600d54905090565b6114f06114ea612504565b8261281d565b611545576040517f08c379a0000000000000000000000000000000000000000000000000000000008152600401808060200182810382526031815260200180613cf76031913960400191505060405180910390fd5b6115508383836125da565b505050565b60006115a882600160008673ffffffffffffffffffffffffffffffffffffffff1673ffffffffffffffffffffffffffffffffffffffff16815260200190815260200160002061291190919063ffffffff16565b905092915050565b6000600a600081548092919060010191905055506115d033600a5461292b565b6115d86139ac565b6040518060e00160405280600a54815260200185858080601f016020809104026020016040519081016040528093929190818152602001838380828437600081840152601f19601f82011690508083019250505050505050815260200186151581526020018781526020018881526020016000151581526020016000815250905080600b6000600a5481526020019081526020016000206000820151816000015560208201518160010190805190602001906116959291906139ed565b5060408201518160020160006101000a81548160ff021916908315150217905550606082015181600301556080820151816004015560a08201518160050160006101000a81548160ff02191690831515021790555060c08201518160060155905050600a5491505095945050505050565b6000600b6000838152602001908152602001600020600601549050919050565b600d54341461173457600080fd5b6001600c60003373ffffffffffffffffffffffffffffffffffffffff1673ffffffffffffffffffffffffffffffffffffffff16815260200190815260200160002060006101000a81548160ff021916908315150217905550565b6117a983838360405180602001604052806000815250611ecd565b505050565b6000806117c5836002612b1f90919063ffffffff16565b50905080915050919050565b600061180182604051806060016040528060298152602001613c07602991396002612b4e9092919063ffffffff16565b9050919050565b606060098054600181600116156101000203166002900480601f0160208091040260200160405190810160405280929190818152602001828054600181600116156101000203166002900480156118a05780601f10611875576101008083540402835291602001916118a0565b820191906000526020600020905b81548152906001019060200180831161188357829003601f168201915b5050505050905090565b60008073ffffffffffffffffffffffffffffffffffffffff168273ffffffffffffffffffffffffffffffffffffffff161415611931576040517f08c379a000000000000000000000000000000000000000000000000000000000815260040180806020018281038252602a815260200180613bdd602a913960400191505060405180910390fd5b611978600160008473ffffffffffffffffffffffffffffffffffffffff1673ffffffffffffffffffffffffffffffffffffffff168152602001908152602001600020612b6d565b9050919050565b813373ffffffffffffffffffffffffffffffffffffffff166119a0826117d1565b73ffffffffffffffffffffffffffffffffffffffff16146119c057600080fd5b6001600b600085815260200190815260200160002060050160006101000a81548160ff02191690831515021790555081600b600085815260200190815260200160002060060181905550505050565b606060078054600181600116156101000203166002900480601f016020809104026020016040519081016040528092919081815260200182805460018160011615610100020316600290048015611aa75780601f10611a7c57610100808354040283529160200191611aa7565b820191906000526020600020905b815481529060010190602001808311611a8a57829003601f168201915b5050505050905090565b600c6020528060005260406000206000915054906101000a900460ff1681565b611ad9612504565b73ffffffffffffffffffffffffffffffffffffffff168273ffffffffffffffffffffffffffffffffffffffff161415611b7a576040517f08c379a00000000000000000000000000000000000000000000000000000000081526004018080602001828103825260198152602001807f4552433732313a20617070726f766520746f2063616c6c65720000000000000081525060200191505060405180910390fd5b8060056000611b87612504565b73ffffffffffffffffffffffffffffffffffffffff1673ffffffffffffffffffffffffffffffffffffffff16815260200190815260200160002060008473ffffffffffffffffffffffffffffffffffffffff1673ffffffffffffffffffffffffffffffffffffffff16815260200190815260200160002060006101000a81548160ff0219169083151502179055508173ffffffffffffffffffffffffffffffffffffffff16611c34612504565b73ffffffffffffffffffffffffffffffffffffffff167f17307eab39ab6107e8899845ad3d59bd9653f200f220920489ca2b5937696c3183604051808215151515815260200191505060405180910390a35050565b60606000806000600a54851115611d08576040517f08c379a000000000000000000000000000000000000000000000000000000000815260040180806020018281038252600c8152602001807f4964206e6f7420666f756e64000000000000000000000000000000000000000081525060200191505060405180910390fd5b60008511611d7e576040517f08c379a000000000000000000000000000000000000000000000000000000000815260040180806020018281038252600c8152602001807f4964206e6f7420666f756e64000000000000000000000000000000000000000081525060200191505060405180910390fd5b611d866139ac565b600b60008781526020019081526020016000206040518060e001604052908160008201548152602001600182018054600181600116156101000203166002900480601f016020809104026020016040519081016040528092919081815260200182805460018160011615610100020316600290048015611e475780601f10611e1c57610100808354040283529160200191611e47565b820191906000526020600020905b815481529060010190602001808311611e2a57829003601f168201915b505050505081526020016002820160009054906101000a900460ff1615151515815260200160038201548152602001600482015481526020016005820160009054906101000a900460ff16151515158152602001600682015481525050905080602001518160400151826060015183608001518393509450945094509450509193509193565b611ede611ed8612504565b8361281d565b611f33576040517f08c379a0000000000000000000000000000000000000000000000000000000008152600401808060200182810382526031815260200180613cf76031913960400191505060405180910390fd5b611f3f84848484612b82565b50505050565b6000600b600083815260200190815260200160002060050160009054906101000a900460ff169050919050565b6000600c60008373ffffffffffffffffffffffffffffffffffffffff1673ffffffffffffffffffffffffffffffffffffffff16815260200190815260200160002060009054906101000a900460ff169050919050565b6060611fd3826124e7565b612028576040517f08c379a000000000000000000000000000000000000000000000000000000000815260040180806020018281038252602f815260200180613ca7602f913960400191505060405180910390fd5b6060600860008481526020019081526020016000208054600181600116156101000203166002900480601f0160208091040260200160405190810160405280929190818152602001828054600181600116156101000203166002900480156120d15780601f106120a6576101008083540402835291602001916120d1565b820191906000526020600020905b8154815290600101906020018083116120b457829003601f168201915b5050505050905060606120e2611808565b90506000815114156120f8578192505050612294565b6000825111156121c95780826040516020018083805190602001908083835b6020831061213a5780518252602082019150602081019050602083039250612117565b6001836020036101000a03801982511681845116808217855250505050505090500182805190602001908083835b6020831061218b5780518252602082019150602081019050602083039250612168565b6001836020036101000a0380198251168184511680821785525050505050509050019250505060405160208183030381529060405292505050612294565b806121d385612bf4565b6040516020018083805190602001908083835b6020831061220957805182526020820191506020810190506020830392506121e6565b6001836020036101000a03801982511681845116808217855250505050505090500182805190602001908083835b6020831061225a5780518252602082019150602081019050602083039250612237565b6001836020036101000a03801982511681845116808217855250505050505090500192505050604051602081830303815290604052925050505b919050565b6000600560008473ffffffffffffffffffffffffffffffffffffffff1673ffffffffffffffffffffffffffffffffffffffff16815260200190815260200160002060008373ffffffffffffffffffffffffffffffffffffffff1673ffffffffffffffffffffffffffffffffffffffff16815260200190815260200160002060009054906101000a900460ff16905092915050565b6000600a54905090565b803373ffffffffffffffffffffffffffffffffffffffff16612358826117d1565b73ffffffffffffffffffffffffffffffffffffffff161461237857600080fd5b61238182612d24565b600b60008381526020019081526020016000206000808201600090556001820160006123ad9190613a6d565b6002820160006101000a81549060ff0219169055600382016000905560048201600090556005820160006101000a81549060ff0219169055600682016000905550505050565b600b602052806000526040600020600091509050806000015490806001018054600181600116156101000203166002900480601f0160208091040260200160405190810160405280929190818152602001828054600181600116156101000203166002900480156124a55780601f1061247a576101008083540402835291602001916124a5565b820191906000526020600020905b81548152906001019060200180831161248857829003601f168201915b5050505050908060020160009054906101000a900460ff16908060030154908060040154908060050160009054906101000a900460ff16908060060154905087565b60006124fd826002612e5e90919063ffffffff16565b9050919050565b600033905090565b816004600083815260200190815260200160002060006101000a81548173ffffffffffffffffffffffffffffffffffffffff021916908373ffffffffffffffffffffffffffffffffffffffff160217905550808273ffffffffffffffffffffffffffffffffffffffff1661257f836117d1565b73ffffffffffffffffffffffffffffffffffffffff167f8c5be1e5ebec7d5bd14f71427d1e84f3dd0314c0f7b2291e5b200ac8c7c3b92560405160405180910390a45050565b60006125d382600001612e78565b9050919050565b8273ffffffffffffffffffffffffffffffffffffffff166125fa826117d1565b73ffffffffffffffffffffffffffffffffffffffff1614612666576040517f08c379a0000000000000000000000000000000000000000000000000000000008152600401808060200182810382526029815260200180613c7e6029913960400191505060405180910390fd5b600073ffffffffffffffffffffffffffffffffffffffff168273ffffffffffffffffffffffffffffffffffffffff1614156126ec576040517f08c379a0000000000000000000000000000000000000000000000000000000008152600401808060200182810382526024815260200180613b2f6024913960400191505060405180910390fd5b6126f7838383612e89565b61270260008261250c565b61275381600160008673ffffffffffffffffffffffffffffffffffffffff1673ffffffffffffffffffffffffffffffffffffffff168152602001908152602001600020612e8e90919063ffffffff16565b506127a581600160008573ffffffffffffffffffffffffffffffffffffffff1673ffffffffffffffffffffffffffffffffffffffff168152602001908152602001600020612ea890919063ffffffff16565b506127bc81836002612ec29092919063ffffffff16565b50808273ffffffffffffffffffffffffffffffffffffffff168473ffffffffffffffffffffffffffffffffffffffff167fddf252ad1be2c89b69c2b068fc378daa952ba7f163c4a11628f55a4df523b3ef60405160405180910390a4505050565b6000612828826124e7565b61287d576040517f08c379a000000000000000000000000000000000000000000000000000000000815260040180806020018281038252602c815260200180613b79602c913960400191505060405180910390fd5b6000612888836117d1565b90508073ffffffffffffffffffffffffffffffffffffffff168473ffffffffffffffffffffffffffffffffffffffff1614806128f757508373ffffffffffffffffffffffffffffffffffffffff166128df8461102d565b73ffffffffffffffffffffffffffffffffffffffff16145b8061290857506129078185612299565b5b91505092915050565b60006129208360000183612ef7565b60001c905092915050565b600073ffffffffffffffffffffffffffffffffffffffff168273ffffffffffffffffffffffffffffffffffffffff1614156129ce576040517f08c379a00000000000000000000000000000000000000000000000000000000081526004018080602001828103825260208152602001807f4552433732313a206d696e7420746f20746865207a65726f206164647265737381525060200191505060405180910390fd5b6129d7816124e7565b15612a4a576040517f08c379a000000000000000000000000000000000000000000000000000000000815260040180806020018281038252601c8152602001807f4552433732313a20746f6b656e20616c7265616479206d696e7465640000000081525060200191505060405180910390fd5b612a5660008383612e89565b612aa781600160008573ffffffffffffffffffffffffffffffffffffffff1673ffffffffffffffffffffffffffffffffffffffff168152602001908152602001600020612ea890919063ffffffff16565b50612abe81836002612ec29092919063ffffffff16565b50808273ffffffffffffffffffffffffffffffffffffffff16600073ffffffffffffffffffffffffffffffffffffffff167fddf252ad1be2c89b69c2b068fc378daa952ba7f163c4a11628f55a4df523b3ef60405160405180910390a45050565b600080600080612b328660000186612f7a565b915091508160001c8160001c8090509350935050509250929050565b6000612b61846000018460001b84613013565b60001c90509392505050565b6000612b7b82600001613109565b9050919050565b612b8d8484846125da565b612b998484848461311a565b612bee576040517f08c379a0000000000000000000000000000000000000000000000000000000008152600401808060200182810382526032815260200180613afd6032913960400191505060405180910390fd5b50505050565b60606000821415612c3c576040518060400160405280600181526020017f30000000000000000000000000000000000000000000000000000000000000008152509050612d1f565b600082905060005b60008214612c66578080600101915050600a8281612c5e57fe5b049150612c44565b6060816040519080825280601f01601f191660200182016040528015612c9b5781602001600182028038833980820191505090505b50905060006001830390508593505b60008414612d1757600a8481612cbc57fe5b0660300160f81b82828060019003935081518110612cd657fe5b60200101907effffffffffffffffffffffffffffffffffffffffffffffffffffffffffffff1916908160001a905350600a8481612d0f57fe5b049350612caa565b819450505050505b919050565b6000612d2f826117d1565b9050612d3d81600084612e89565b612d4860008361250c565b60006008600084815260200190815260200160002080546001816001161561010002031660029004905014612d9757600860008381526020019081526020016000206000612d969190613a6d565b5b612de882600160008473ffffffffffffffffffffffffffffffffffffffff1673ffffffffffffffffffffffffffffffffffffffff168152602001908152602001600020612e8e90919063ffffffff16565b50612dfd82600261335f90919063ffffffff16565b5081600073ffffffffffffffffffffffffffffffffffffffff168273ffffffffffffffffffffffffffffffffffffffff167fddf252ad1be2c89b69c2b068fc378daa952ba7f163c4a11628f55a4df523b3ef60405160405180910390a45050565b6000612e70836000018360001b613379565b905092915050565b600081600001805490509050919050565b505050565b6000612ea0836000018360001b61339c565b905092915050565b6000612eba836000018360001b613484565b905092915050565b6000612eee846000018460001b8473ffffffffffffffffffffffffffffffffffffffff1660001b6134f4565b90509392505050565b600081836000018054905011612f58576040517f08c379a0000000000000000000000000000000000000000000000000000000008152600401808060200182810382526022815260200180613adb6022913960400191505060405180910390fd5b826000018281548110612f6757fe5b9060005260206000200154905092915050565b60008082846000018054905011612fdc576040517f08c379a0000000000000000000000000000000000000000000000000000000008152600401808060200182810382526022815260200180613c306022913960400191505060405180910390fd5b6000846000018481548110612fed57fe5b906000526020600020906002020190508060000154816001015492509250509250929050565b600080846001016000858152602001908152602001600020549050600081141583906130da576040517f08c379a00000000000000000000000000000000000000000000000000000000081526004018080602001828103825283818151815260200191508051906020019080838360005b8381101561309f578082015181840152602081019050613084565b50505050905090810190601f1680156130cc5780820380516001836020036101000a031916815260200191505b509250505060405180910390fd5b508460000160018203815481106130ed57fe5b9060005260206000209060020201600101549150509392505050565b600081600001805490509050919050565b600061313b8473ffffffffffffffffffffffffffffffffffffffff166135d0565b6131485760019050613357565b60606132de63150b7a0260e01b61315d612504565b888787604051602401808573ffffffffffffffffffffffffffffffffffffffff1673ffffffffffffffffffffffffffffffffffffffff1681526020018473ffffffffffffffffffffffffffffffffffffffff1673ffffffffffffffffffffffffffffffffffffffff16815260200183815260200180602001828103825283818151815260200191508051906020019080838360005b8381101561320d5780820151818401526020810190506131f2565b50505050905090810190601f16801561323a5780820380516001836020036101000a031916815260200191505b5095505050505050604051602081830303815290604052907bffffffffffffffffffffffffffffffffffffffffffffffffffffffff19166020820180517bffffffffffffffffffffffffffffffffffffffffffffffffffffffff8381831617835250505050604051806060016040528060328152602001613afd603291398773ffffffffffffffffffffffffffffffffffffffff166135e39092919063ffffffff16565b905060008180602001905160208110156132f757600080fd5b8101908080519060200190929190505050905063150b7a0260e01b7bffffffffffffffffffffffffffffffffffffffffffffffffffffffff1916817bffffffffffffffffffffffffffffffffffffffffffffffffffffffff191614925050505b949350505050565b6000613371836000018360001b6135fb565b905092915050565b600080836001016000848152602001908152602001600020541415905092915050565b6000808360010160008481526020019081526020016000205490506000811461347857600060018203905060006001866000018054905003905060008660000182815481106133e757fe5b906000526020600020015490508087600001848154811061340457fe5b906000526020600020018190555060018301876001016000838152602001908152602001600020819055508660000180548061343c57fe5b6001900381819060005260206000200160009055905586600101600087815260200190815260200160002060009055600194505050505061347e565b60009150505b92915050565b60006134908383613714565b6134e95782600001829080600181540180825580915050600190039060005260206000200160009091909190915055826000018054905083600101600084815260200190815260200160002081905550600190506134ee565b600090505b92915050565b600080846001016000858152602001908152602001600020549050600081141561359b578460000160405180604001604052808681526020018581525090806001815401808255809150506001900390600052602060002090600202016000909190919091506000820151816000015560208201518160010155505084600001805490508560010160008681526020019081526020016000208190555060019150506135c9565b828560000160018303815481106135ae57fe5b90600052602060002090600202016001018190555060009150505b9392505050565b600080823b905060008111915050919050565b60606135f28484600085613737565b90509392505050565b60008083600101600084815260200190815260200160002054905060008114613708576000600182039050600060018660000180549050039050600086600001828154811061364657fe5b906000526020600020906002020190508087600001848154811061366657fe5b90600052602060002090600202016000820154816000015560018201548160010155905050600183018760010160008360000154815260200190815260200160002081905550866000018054806136b957fe5b600190038181906000526020600020906002020160008082016000905560018201600090555050905586600101600087815260200190815260200160002060009055600194505050505061370e565b60009150505b92915050565b600080836001016000848152602001908152602001600020541415905092915050565b606082471015613792576040517f08c379a0000000000000000000000000000000000000000000000000000000008152600401808060200182810382526026815260200180613b536026913960400191505060405180910390fd5b61379b856135d0565b61380d576040517f08c379a000000000000000000000000000000000000000000000000000000000815260040180806020018281038252601d8152602001807f416464726573733a2063616c6c20746f206e6f6e2d636f6e747261637400000081525060200191505060405180910390fd5b600060608673ffffffffffffffffffffffffffffffffffffffff1685876040518082805190602001908083835b6020831061385d578051825260208201915060208101905060208303925061383a565b6001836020036101000a03801982511681845116808217855250505050505090500191505060006040518083038185875af1925050503d80600081146138bf576040519150601f19603f3d011682016040523d82523d6000602084013e6138c4565b606091505b50915091506138d48282866138e0565b92505050949350505050565b606083156138f0578290506139a5565b6000835111156139035782518084602001fd5b816040517f08c379a00000000000000000000000000000000000000000000000000000000081526004018080602001828103825283818151815260200191508051906020019080838360005b8381101561396a57808201518184015260208101905061394f565b50505050905090810190601f1680156139975780820380516001836020036101000a031916815260200191505b509250505060405180910390fd5b9392505050565b6040518060e0016040528060008152602001606081526020016000151581526020016000815260200160008152602001600015158152602001600081525090565b828054600181600116156101000203166002900490600052602060002090601f016020900481019282601f10613a2e57805160ff1916838001178555613a5c565b82800160010185558215613a5c579182015b82811115613a5b578251825591602001919060010190613a40565b5b509050613a699190613ab5565b5090565b50805460018160011615610100020316600290046000825580601f10613a935750613ab2565b601f016020900490600052602060002090810190613ab19190613ab5565b5b50565b613ad791905b80821115613ad3576000816000905550600101613abb565b5090565b9056fe456e756d657261626c655365743a20696e646578206f7574206f6620626f756e64734552433732313a207472616e7366657220746f206e6f6e20455243373231526563656976657220696d706c656d656e7465724552433732313a207472616e7366657220746f20746865207a65726f2061646472657373416464726573733a20696e73756666696369656e742062616c616e636520666f722063616c6c4552433732313a206f70657261746f7220717565727920666f72206e6f6e6578697374656e7420746f6b656e4552433732313a20617070726f76652063616c6c6572206973206e6f74206f776e6572206e6f7220617070726f76656420666f7220616c6c4552433732313a2062616c616e636520717565727920666f7220746865207a65726f20616464726573734552433732313a206f776e657220717565727920666f72206e6f6e6578697374656e7420746f6b656e456e756d657261626c654d61703a20696e646578206f7574206f6620626f756e64734552433732313a20617070726f76656420717565727920666f72206e6f6e6578697374656e7420746f6b656e4552433732313a207472616e73666572206f6620746f6b656e2074686174206973206e6f74206f776e4552433732314d657461646174613a2055524920717565727920666f72206e6f6e6578697374656e7420746f6b656e4552433732313a20617070726f76616c20746f2063757272656e74206f776e65724552433732313a207472616e736665722063616c6c6572206973206e6f74206f776e6572206e6f7220617070726f766564a2646970667358221220870086f2f65dee88313df073178c286fae531d14c5f4f6bd267b07dc66d40be964736f6c63430006020033",
  "source": "pragma solidity ^0.6.0;\r\nimport \"./IExerciceSolution.sol\";\r\nimport \"@openzeppelin/contracts/token/ERC721/ERC721.sol\";\r\n\r\n\r\ncontract ExerciceSolution is ERC721\r\n{\r\n\r\n\tstruct Animal {\r\n\t\tuint256 id;\r\n\t\tstring name;\r\n\t\tbool wings;\r\n\t\tuint legs; \r\n\t\tuint sex;\r\n\t\tbool isForSale;\r\n\t\tuint256 price;\r\n\t}\r\n\r\n\tuint256 private _tokenNumber;\r\n\tmapping(uint256 => Animal) public _tokens;\r\n\tmapping(address => bool) public _breeder;\r\n\tuint256 private _priceBreeder;\r\n\taddress private _owner;\r\n\r\n\r\n\tconstructor(string memory _name, string memory _symbol) public ERC721(_name, _symbol){\r\n\t\t_tokenNumber = 0;\r\n\t\t_priceBreeder = 0.01 ether;\r\n\t\t_owner = msg.sender;\r\n\t\t_breeder[_owner] = true;\r\n\t}\r\n\r\n\r\n\t// Breeding function\r\n\r\n\tfunction isBreeder(address account) external view returns (bool){\r\n\t\treturn _breeder[account];\r\n\t}\r\n\r\n\tfunction registrationPrice() external view returns (uint256){\r\n\t\treturn _priceBreeder;\r\n\t}\r\n\r\n\tfunction registerMeAsBreeder() external payable{\r\n\r\n\t\trequire(msg.value == _priceBreeder);\r\n\t\t_breeder[msg.sender] = true;\r\n\r\n\t}\r\n\r\n\tfunction declareAnimal(uint sex, uint legs, bool wings, string calldata name) \r\n\texternal \r\n\treturns (uint256)\r\n\t{\r\n\t\t_tokenNumber++;\r\n\t\t_mint(msg.sender, _tokenNumber);\r\n\t\tAnimal memory newAnimal = Animal(_tokenNumber, name, wings, legs, sex, false, 0);\r\n\t\t_tokens[_tokenNumber] = newAnimal;\r\n\t\treturn _tokenNumber;\r\n\t}\t\r\n\t\r\n\tfunction getAnimalCharacteristics(uint animalNumber) \r\n\texternal \r\n\tview \r\n\treturns (string memory _name, bool _wings, uint _legs, uint _sex)\r\n\t{\r\n\t\trequire(animalNumber <= _tokenNumber, \"Id not found\");\r\n\t\trequire(animalNumber > 0, \"Id not found\");\r\n\t\tAnimal memory animal = _tokens[animalNumber];\r\n\t\treturn (animal.name, animal.wings, animal.legs, animal.sex);\r\n\t}\r\n\r\n\tmodifier onlyAnimalOwner(uint256 RefToken) \r\n\t{\r\n\t    require(ownerOf(RefToken) == msg.sender);\r\n\t\t_;\r\n\t}\r\n\r\n\tfunction declareDeadAnimal(uint animalNumber) \r\n\texternal\r\n\tonlyAnimalOwner(animalNumber)\r\n\t{\r\n\t\t_burn(animalNumber);\r\n\t\tdelete _tokens[animalNumber];\r\n\t}\r\n\r\n\r\n// Selling functions\r\n\r\n\tfunction isAnimalForSale(uint animalNumber) \r\n\texternal \r\n\tview \r\n\treturns (bool)\r\n\t{\r\n\t\treturn _tokens[animalNumber].isForSale;\r\n\t}\r\n\r\n\tfunction animalPrice(uint animalNumber) \r\n\texternal \r\n\tview \r\n\treturns (uint256)\r\n\t{\r\n\t\treturn _tokens[animalNumber].price;\r\n\t}\r\n\r\n\tfunction buyAnimal(uint animalNumber) \r\n\texternal\r\n\tpayable\r\n\t{\r\n\t\tAnimal memory animal = _tokens[animalNumber];\r\n\r\n\t\trequire(animal.isForSale, \"Animal is not for sale\");\r\n\t\trequire(msg.value == animal.price);\r\n\r\n\t\taddress animalOwner = ownerOf(animalNumber);\r\n\r\n\t\t//give eth to current owner\r\n\t\t(bool sent, bytes memory data) = animalOwner.call{value: msg.value}(\"\");\r\n\t\trequire(sent, \"Failed to transfer Ether\");\r\n\r\n\t\t//transfer token to new owner\r\n\t\t_transfer(animalOwner, msg.sender, animalNumber);\r\n\r\n\t\t//reset sale\r\n\t\tdelete animal.isForSale;\r\n\t}\r\n\r\n\tfunction offerForSale(uint animalNumber, uint price) \r\n\texternal\r\n\tonlyAnimalOwner(animalNumber)\r\n\t{\r\n\t\t_tokens[animalNumber].isForSale = true;\r\n\t\t_tokens[animalNumber].price = price;\r\n\t}\r\n\r\n\tfunction lastMintedToken()\r\n\texternal\r\n\tview\r\n\treturns (uint256)\r\n\t{\r\n\t\treturn _tokenNumber;\r\n\t}\r\n\r\n\t\r\n\r\n\r\n\r\n\r\n}",
  "sourcePath": "C:/Users/Admin/Documents/Semestre 7/Blockchain programming/TD5/Ferme/erc721-101/contracts/ERC721TD.sol",
  "compiler": {
    "name": "solc",
    "version": "0.6.2+commit.bacdbe57.Emscripten.clang"
  },
  "schemaVersion": "3.4.1",
  "updatedAt": "2021-12-10T02:35:01.421Z",
  "networkType": "ethereum",
  "devdoc": {
    "methods": {
      "approve(address,uint256)": {
        "details": "See {IERC721-approve}."
      },
      "balanceOf(address)": {
        "details": "See {IERC721-balanceOf}."
      },
      "baseURI()": {
        "details": "Returns the base URI set via {_setBaseURI}. This will be automatically added as a prefix in {tokenURI} to each token's URI, or to the token ID if no specific URI is set for that token ID."
      },
      "getApproved(uint256)": {
        "details": "See {IERC721-getApproved}."
      },
      "isApprovedForAll(address,address)": {
        "details": "See {IERC721-isApprovedForAll}."
      },
      "name()": {
        "details": "See {IERC721Metadata-name}."
      },
      "ownerOf(uint256)": {
        "details": "See {IERC721-ownerOf}."
      },
      "safeTransferFrom(address,address,uint256)": {
        "details": "See {IERC721-safeTransferFrom}."
      },
      "safeTransferFrom(address,address,uint256,bytes)": {
        "details": "See {IERC721-safeTransferFrom}."
      },
      "setApprovalForAll(address,bool)": {
        "details": "See {IERC721-setApprovalForAll}."
      },
      "supportsInterface(bytes4)": {
        "details": "See {IERC165-supportsInterface}.     * Time complexity O(1), guaranteed to always use less than 30 000 gas."
      },
      "symbol()": {
        "details": "See {IERC721Metadata-symbol}."
      },
      "tokenByIndex(uint256)": {
        "details": "See {IERC721Enumerable-tokenByIndex}."
      },
      "tokenOfOwnerByIndex(address,uint256)": {
        "details": "See {IERC721Enumerable-tokenOfOwnerByIndex}."
      },
      "tokenURI(uint256)": {
        "details": "See {IERC721Metadata-tokenURI}."
      },
      "totalSupply()": {
        "details": "See {IERC721Enumerable-totalSupply}."
      },
      "transferFrom(address,address,uint256)": {
        "details": "See {IERC721-transferFrom}."
      }
    }
  },
  "userdoc": {
    "methods": {}
  }
}